:100000000C94DB0D0C94130E0C94130E0C94130E25
:100010000C94130E0C94130E0C94130E0C94130EDC
:100020000C94130E0C94130E0C94D9170C94091DF8
:100030000C94152D0C94130E0C94130E0C94130E9B
:100040000C94130E0C94130E0C94130E0C94130EAC
:100050000C94130E0C94B2180C94130E0C94130EF3
:100060000C94130E0C94130E0C94130E0C94130E8C
:100070000C94130E0C94130E0C94130E0C94130E7C
:100080000C94130E0C94130E0C94130E0C94130E6C
:100090000C94130E0C94130E0C94130E0C94130E5C
:1000A0000C94130E0C94130E0C94130E050109807E
:1000B000A101850319012AB700150126B700950192
:1000C00075108100C0050C0901A101850419012AE0
:1000D000A002150126A002950175108100C005013E
:1000E0000906A1018506050719E029E71500250184
:1000F0009508750181020507190029EF15002501F2
:1001000095F075018102050819012905950575010C
:100110009102950175039101C00660FF0961A1017B
:100120000962150026FF00952075088102096315F4
:100130000026FF00952075089102C005010906A15F
:1001400001050719E029E7150025019508750181CA
:10015000029501750881010507190029FF15002680
:10016000FF00950675088100050819012905950508
:1001700075019102950175039101C0000000000016
:10018000000000000000000000000000000000006F
:10019000000000000000000000000000000000005F
:1001A000000000000000000000000000000000004F
:1001B00000000000000000000000000000808080BF
:1001C0004040202010080402040810102020404065
:1001D000808000000000000000000000000000001F
:1001E000000000000000000000000000000000000F
:1001F00000000000000000000000000000000000FF
:1002000000000000000000000000000000000000EE
:1002100000000000000000000000000000000000DE
:1002200000000000000000000000000000003FC1CE
:1002300001010202040404040202010101000000A1
:10024000000000800000408080400000303000004E
:100250000000010264180412C2CA2488F0808040A1
:1002600040404020202020101010100808080804EA
:100270000404040202020201010101000000000066
:10028000000000000000000000000000000000006E
:10029000000000000000000000000000000000005E
:1002A00000000000000000000000000000E0180650
:1002B0000100000000000000000000008083834077
:1002C0004040402021212010101010080808080488
:1002D0000404040202020201010101000000000006
:1002E000000000000000000000000000000000000E
:1002F00000000000000000000000000000000000FE
:1003000000000000000000000000000000000000ED
:10031000000000000000000000000080808080409D
:100320004040402020202010101010080F08080422
:100330000404040204081010202040404142249884
:10034000C088888C9C1C1E0E060000000000000067
:10035000000000000000000000000000000000009D
:10036000000000000000000000000000000000008D
:10037000000000000000000000000000000000007D
:10038000000000000000000000000000000000006D
:10039000000000000000000000000000000000005D
:1003A000000000000000000000000000000000004D
:1003B000000000000000000000000000000000003D
:1003C000000000000000000000000000000000002D
:1003D000000000000000000000000000000000001D
:1003E000000000000000000000000000000000000D
:1003F00000000000000000000000000000000000FD
:1004000000000000000000000000000000000000EC
:1004100000000000000000000000000000000000DC
:1004200000000000000000000000000000000000CC
:10043000000000000000000000808080404020207C
:1004400010080402040810102020404080800000A2
:10045000000000000000000000000000000000009C
:10046000000000000000000000000000000000008C
:10047000000000000000000000000000000000007C
:10048000000000000000000000000000000000006C
:10049000000000000000000000000000000000005C
:1004A000000000000000000000003FC10101020246
:1004B00004844444428201010100000000000080E5
:1004C0000000408080400000303000000000010249
:1004D0000404080810204080808080404040402074
:1004E000202020101010100808080804040404023A
:1004F00002020201010101000000000000000000F2
:1005000000000000000000000000000000000000EB
:1005100000000000000000000000000000000000DB
:10052000000000000000000000E018060100000CC0
:1005300003000218190005FE8083834040404020DC
:1005400021212010101010080808080404040404D5
:1005500008304080800000018698600000000000A4
:10056000000000000000000000000000000000008B
:10057000000000000000000000000000000000007B
:10058000000000000000000000000000000000006B
:10059000000000000000008080808040404040203B
:1005A00020202010101010080F0808040404040272
:1005B0000202020101010100000000000000000031
:1005C00000000000000000000000060F0F070303FA
:1005D00061F0F8FC600101013C78F8F07000000067
:1005E000000000000000000000000000000000000B
:1005F00000000000000000000000000000000000FB
:1006000000000000000000000000000000000000EA
:1006100000000000000000000000000000000000DA
:1006200000000000000000000000000000000000CA
:1006300000000000000000000000000000000000BA
:1006400000000000000000000000000000000000AA
:10065000000000000000000000000000000000009A
:10066000000000000000000000000000000000008A
:10067000000000000000000000000000000000007A
:10068000000000000000000000000000000000006A
:10069000000000000000000000000000000000005A
:1006A000000000000000000000000000000000004A
:1006B00000008080404040202020202018040201BB
:1006C000020408102020404080800000000000004C
:1006D000000000000000000000000000000000001A
:1006E000000000000000000000000000000000000A
:1006F00000000000000000000000000000000000FA
:1007000000000000000000000000000000000000E9
:1007100000000000000000000000000000000000D9
:100720000000000000003FC10101020204040404B3
:100730000202010000000000000000800000408074
:10074000804000003030000000000102040408086E
:100750001020408080808040404040202020201099
:100760001010100808080804040404020202020120
:100770000101010000000000000000000000000076
:100780000000000000000000000000000000000069
:100790000000000000000000000000000000000059
:1007A0000000000000E0180601000000000000004A
:1007B0000000000080838340404040202121201021
:1007C00010101008080808040404040408304080CD
:1007D000800000018698600000000000000000001A
:1007E0000000000000000000000000000000000009
:1007F00000000000000000000000000000000000F9
:1008000000000000000000000000000000000000E8
:100810000000008080808040404040202020201048
:10082000101010080F080804040404020408101033
:100830002020404041422418000000000000000039
:1008400000000000000000000000000000000000A8
:100850000001010100000000000000000000000095
:100860000000000000000000000000000000000088
:100870000000000000000000000000000000000078
:100880000000000000000000000000000000000068
:100890000000000000000000000000000000000058
:1008A0000000000000000000000000000000000048
:1008B0000000000000000000000000000000000038
:1008C0000000000000000000000000000000000028
:1008D0000000000000000000000000000000000018
:1008E0000000000000000000000000000000000008
:1008F00000000000000000000000000000000000F8
:1009000000000000000000000000000000000000E7
:1009100000000000000000000000000000000000D7
:1009200000000000000000000000000000000000C7
:10093000008080404040201008040201020408109A
:100940002040808000000000000000000000000047
:100950000000000000000000000000000000000097
:100960000000000000000000000000000000000087
:100970000000000000000000000000000000000077
:100980000000000000000000000000000000000067
:100990000000000000000000000000000000000057
:1009A00000003FC10101020204040404020201012B
:1009B0000100000000000000000080000080000036
:1009C000606000000102040408081010202040802C
:1009D00080808040404040202020201010101008CF
:1009E00008080804040404020202020101010100D3
:1009F00000000000000000000000000000000000F7
:100A000000000000000000000000000000000000E6
:100A100000000000000000000000000000000000D6
:100A200000C0300C030000000000000000000000C7
:100A3000808686404040402122222011111010085B
:100A40000808080404040404083040808000000101
:100A50008698600000000000000000000000000018
:100A60000000000000000000000000000000000086
:100A70000000000000000000000000000000000076
:100A800000000000000000000000000000000080E6
:100A9000808080404040402020202010101010080E
:100AA0000F08080404040402040810102020404029
:100AB0004142241800000000000000000000000077
:100AC0000000000000000000000000000001010123
:100AD0000000000000000000000000000000000016
:100AE0000000000000000000000000000000000006
:100AF00000000000000000000000000000000000F6
:100B000000000000000000000000000000000000E5
:100B100000000000000000000000000000000000D5
:100B200000000000000000000000000000000000C5
:100B300000000000000000000000000000000000B5
:100B400000000000000000000000000000000000A5
:100B50000000000000000000000000000000000095
:100B60000000000000000000000000000000000085
:100B70000000000000000000000000000000000075
:100B80000000000000000000000000000000000065
:100B90000000000000000000000000000000000055
:100BA00000000000000000000000000000808080C5
:100BB000804040201008040204081020408080007B
:100BC0000000000000000000000000000000000025
:100BD0000000000000000000000000000000000015
:100BE0000000000000000000000000000000000005
:100BF00000000000000000000000000000000000F5
:100C000000000000000000000000000000000000E4
:100C100000000000000000000000000000007E82D4
:100C2000020204040808080804040201010000008C
:100C300000000000000080000080000060600001F3
:100C400001020404080810102020408080808040A9
:100C500040404020202020101010100808080804F0
:100C6000040404020202020101010100000000006C
:100C70000000000000000000000000000000000074
:100C80000000000000000000000000000000000064
:100C900000000000000000000000000000C0300C58
:100CA0000300000000000000000000008086864075
:100CB0004040402122222011111010080808080489
:100CC000040404040830408080000001869860001D
:100CD0000000000000000000000000000000000014
:100CE0000000000000000000000000000000000004
:100CF00000000000000000000000000000000000F4
:100D000000000000000000000000008080808040A3
:100D10004040402020202010101010080F08080428
:100D2000040404020408101020204040414224180A
:100D300000000000000000000000000000000000B3
:100D400000000000000000000001010100000000A0
:100D50000000000000000000000000000000000093
:100D60000000000000000000000000000000000083
:100D70000000000000000000000000000000000073
:100D80000000000000000000000000000000000063
:100D90000000000000000000000000000000000053
:100DA0000000000000000000000000000000000043
:100DB0000000000000000000000000000000000033
:100DC0000000000000000000000000000000000023
:100DD0000000000000000000000000000000000013
:100DE0000000000000000000000000000000000003
:100DF00000000000000000000000000000000000F3
:100E000000000000000000000000000000000000E2
:100E100000000000000000000000000000000000D2
:100E20000000000000000000008080808040402022
:100E30001008040204081020408080000000000018
:100E400000000000000000000000000000000000A2
:100E50000000000000000000000000000000000092
:100E60000000000000000000000000000000000082
:100E70000000000000000000000000000000000072
:100E80000000000000000000000000000000000062
:100E90000000000000000000001C34C4040404082A
:100EA0000808080804040201010000000000008096
:100EB0000000408080400000303000010102020448
:100EC000040408081020408080808040404040207A
:100ED0002020201010101008080808040404040240
:100EE00002020201010101000000000000000000F8
:100EF00000000000000000000000000000000000F2
:100F000000000000000000000000000000000000E1
:100F1000000000000000000000E0180601000000D2
:100F2000000000000000000080838340404040201B
:100F300021212010101010080808080404040404DB
:100F400008304080800000018698600000000000AA
:100F50000000000000000000000000000000000091
:100F60000000000000000000000000000000000081
:100F70000000000000000000000000000000000071
:100F80000000000000000080808080404040402041
:100F900020202010101010080F0808040404040278
:100FA0000408101020204040414224180000000096
:100FB0000000000000000000000000000000000031
:100FC000000000000001010100000000000000001E
:100FD0000000000000000000000000000000000011
:100FE0000000000000000000000000000000000001
:100FF00000000000000000000000000000000000F1
:1010000000000000000000000000000000000000E0
:1010100000000000000000000000000000000000D0
:1010200000000000000000000000000000000000C0
:1010300000000000000000000000000000000000B0
:1010400000000000000000000000000000000000A0
:101050000000000000000000000000000000000090
:101060000000000000000000000000000000000080
:101070000000000000000000000000000000000070
:101080000000000000000000000000000000000060
:101090000000000000000000000000000000000050
:1010A00000008080404040202020202018040201C1
:1010B0000204081020204040808000000000000052
:1010C0000000000000000000000000000000000020
:1010D0000000000000000000000000000000000010
:1010E0000000000000000000000000000000000000
:1010F00000000000000000000000000000000000F0
:1011000000000000000000000000000000000000DF
:1011100000000000060D31C10101010202020404B9
:10112000020201000000000000000080000040807A
:101130008040000030300000000001020404080874
:10114000102040808080804040404020202020109F
:101150001010100808080804040404020202020126
:10116000010101000000000000000000000000007C
:10117000000000000000000000000000000000006F
:10118000000000000000000000000000000000005F
:101190000000000000E01806010000000000000050
:1011A0000000000080838340404040202121201027
:1011B00010101008080808040404040408304080D3
:1011C0008000000186986000000000000000000020
:1011D000000000000000000000000000000000000F
:1011E00000000000000000000000000000000000FF
:1011F00000000000000000000000000000000000EF
:10120000000000808080804040404020202020104E
:10121000101010080F080804040404020408101039
:10122000202040404142241800000000000000003F
:1012300000000000000000000000000000000000AE
:10124000000101010000000000000000000000009B
:10125000000000000000000000000000000000008E
:10126000000000000000000000000000000000007E
:10127000000000000000000000000000000000006E
:10128000000000000000000000000000000000005E
:10129000000000000000000000000000000000004E
:1012A000000000000000000000000000000000003E
:1012B000000000000000000000000000000000002E
:1012C000000000000000000000000000000000001E
:1012D000000000000000000000000000000000000E
:1012E00000000000000000000000000000000000FE
:1012F00000000000000000000000000000000000EE
:101300000000007E0F00D4FFFFFFC7000000780040
:10131000000000000000002A2B2800000000000050
:101320000000000000000000000029000000002C68
:101330001E3420212224342627252E362D37382707
:101340001E1F202122232425263333362E37381F13
:101350000405060708090A0B0C0D0E0F10111213D5
:101360001415161718191A1B1C1D2F3130232D3573
:101370000405060708090A0B0C0D0E0F10111213B5
:101380001415161718191A1B1C1D2F3130354C0057
:10139000DA0281FFD9F1DB20A4A62EAF00A0C000A5
:1013A000A1C800AED580A81FD300408D1420004DE9
:1013B0004953432E004D4544494100234E554D535A
:1013C00000462D4B455900FD377A585A000004E677
:1013D000D6B4460200210116000000742FE5A3E0F8
:1013E000018C00E75D003D8889C65436C3174FE481
:1013F000DD8E057580C235A06D72E4E763E49998CF
:101400002806E2533185A35B558129060E1A2ECAA0
:101410001A744642A76C361F31F8EA924F1A4DC82B
:10142000EA56FCD8E239650AAE82034AFF2467BC5B
:10143000BA28980011F5F1A97E98A908F12D2DF789
:101440000094072A4F5130D7C70BEA7C1143B0AC48
:101450003A8D869B3F70FEB0F3AEFDC595913F522D
:10146000CDA9D7E22DFAE685044729B0629C5072D7
:10147000F116D1DFA97F5DFA917949F6B9F925D244
:101480005112A20C2EC13952D37DBBA9190BD0D455
:101490001AE9E507673F20662740C3CD2E16E9818C
:1014A000DD74348E2A6D599DE80357E5ECD9B76297
:1014B0006E79CFCA1129A81E2B9475979F59536630
:1014C000AA0D6FF37B0913A51528BE9C2E0000C43E
:1014D000BD9FACA70744BB000183028D03000074CD
:1014E00031C43CB1C467FB020000000004595A003B
:1014F0005CAE00AB00AD00AF00A8003A003B003C82
:10150000003D003E004B0000007C0000007D00001C
:10151000004E0001000100A6022F17611700000213
:10152000000200A2022F176117000003000100A7AC
:10153000022F1761170000040002008C022F1761B0
:1015400017271105000100A8022F176117000006D8
:101550000002008E022F176117000007000200A48E
:10156000022F176117000008000100A9022F176160
:1015700017000012000200AA022F176117000013C3
:10158000000200AC022F176117000014000100AE2A
:10159000022F1761170000150000000000AD104A6F
:1015A0001E000000AF00AE09025B00030100A0FABC
:1015B00009040000010301010009211101000122B9
:1015C000400007058103080001090401000203002F
:1015D00000000921110100012222000705820320D9
:1015E00000010705030320000109040200010300B4
:1015F0000000092111010001226D0007058403206C
:1016000000011201000200000008646D7064010016
:10161000010203011C037600690061006C003A00BE
:10162000660036003400630032006200330063005D
:1016300000001003440061006D0061007000610053
:10164000640000002C0342006F006C007300610016
:1016500020004B006500790062006F00610072009D
:101660006400200053007500700070006C00790069
:1016700000000403090407087F0807003E5B4F5B76
:101680003E003E6B4F6B3E001C3E7C3E1C00183CF7
:101690007E3C18001C577D571C001C5E7F5E1C00A2
:1016A00000183C180000FFE7C3E7FF0000182418EB
:1016B0000000FFE7DBE7FF0030483A060E0026296E
:1016C00079292600407F05050700407F05253F005A
:1016D0005A3CE73C5A007F3E1C1C0800081C1C3E7C
:1016E0007F0014227F2214005F5F005F5F00060905
:1016F0007F017F00006689956A006060606060001D
:1017000094A2FFA2940008047E04080010207E200A
:10171000100008082A1C0800081C2A0808001E10CF
:10172000101010000C1E0C1E0C0030383E3830001B
:10173000060E3E0E060000000000000000005F00E4
:101740000000000700070000147F147F1400242A03
:101750007F2A120023130864620036495620500085
:10176000000807030000001C224100000041221C69
:1017700000002A1C7F1C2A0008083E080800008080
:1017800070300000080808080800000060600000D1
:101790002010080402003E5149453E0000427F40AF
:1017A00000007249494946002141494D330018144F
:1017B000127F10002745454539003C4A4949310010
:1017C000412111090700364949493600464949294E
:1017D0001E0000001400000000403400000000085B
:1017E000142241001414141414000041221408009F
:1017F0000201590906003E415D594E007C1211124A
:101800007C007F49494936003E41414122007F41E9
:1018100041413E007F49494941007F0909090100D2
:101820003E41415173007F0808087F0000417F411D
:1018300000002040413F01007F08142241007F400A
:10184000404040007F021C027F007F0408107F00A0
:101850003E4141413E007F09090906003E415121B8
:101860005E007F09192946002649494932000301D3
:101870007F0103003F4040403F001F2040201F00E9
:101880003F4038403F0063140814630003047804A9
:1018900003006159494D4300007F4141410002046A
:1018A00008102000004141417F00040201020400B1
:1018B0004040404040000003070800002054547896
:1018C00040007F28444438003844444428003844C9
:1018D00044287F0038545454180000087E09020040
:1018E00018A4A49C78007F080404780000447D407C
:1018F00000002040403D00007F10284400000041CF
:101900007F4000007C04780478007C0804047800A0
:10191000384444443800FC1824241800182424189F
:10192000FC007C08040408004854545424000404B7
:101930003F4424003C4040207C001C2040201C00F0
:101940003C4030403C004428102844004C9090908B
:101950007C004464544C4400000836410000000000
:101960007700000000413608000002010204020076
:101970003C2623263C00000000000000404040F0D0
:10198000F8F8FF38FFF8F83FF8F8FF38FFF8F8F0FC
:1019900040404000000000000080C0C0C080000047
:1019A000C0C08000000080C0C000C0C0000080C077
:1019B000C00000000000C0C0C0C0C000C0C0000027
:1019C0000000000000000000000000000000000017
:1019D0000000000000000000000000000000000007
:1019E00000000000000000000000000000000000F7
:1019F0000000000000C0F0F8FC3E1E0601000000E0
:101A00007F4141417F007F4141417F000080C0E034
:101A10007E5B4F5BFEC00000C000DCD7DEDEDED7A1
:101A2000DC00C0000000000000000000000000001A
:101A3000000000000000000000000000494949FFCC
:101A4000FFFFFFE0DFBFBF00BFBFDFE0FFFFFFFF23
:101A500049494900000000001F3F6060E0BF1F00CF
:101A60007F7F071E381E077F7F007F7F0E1F3B7121
:101A70006000000000007F7F0C0C0C007E7E007F69
:101A80007E0303007F7E03037E7E03037F7E000FC1
:101A90003E703C063C703E0F00327B49493F7E0061
:101AA0007F7E0303001E3F69696F2600000000006F
:101AB0000000000000030F1F3F3C78706000000032
:101AC0007F4141417F007F4141417F00307B7F78F2
:101AD00030202030787F3B0003000F7F0F0F0F7FF7
:101AE0000F000300000000000000000000000000E4
:101AF00000000000000000000000000001010107DC
:101B00000F0F7F0F7F0F0F7E0F0F7F0F7F0F0F07BE
:101B100001010100000000000000000000010100C0
:101B200000000000000000000000000000000000B5
:101B300000000000000000000000000000000000A5
:101B40000000000000000000000000000000000095
:101B50000000000000000000000000000000000085
:101B60000000000000000000000000000000000075
:101B70000000000000000000000000000000000065
:101B80000000000000000000000000000000000055
:101B90000000000000000000000000000000000045
:101BA0000000000000000000000000000000000035
:101BB00000000000000011241FBECFEFDAE0DEBFFE
:101BC000CDBF04B603FE18C08091FF0490910005BC
:101BD000A0910105B09102058730904BA740B04B12
:101BE00059F41092FF041092000510920105109212
:101BF0000205E0E0F8E3099511E0A0E0B1E0E8E1DA
:101C0000FDE602C005900D92A038B107D9F724E097
:101C1000A0E8B1E001C01D92AF3FB207E1F70E941A
:101C20003C2D0C9466360C940000CF93DF934091CA
:101C3000FD045091FE044D5F52409A0124583D4FDF
:101C400021303240C0F020E032E0241B350B60919F
:101C5000FB027091FC02FC01CA01240F351FC1E098
:101C6000D0E08217930750F07093FC026093FB0260
:101C7000DF91CF9108952CE732E0E9CF4491DC0168
:101C8000A350BD4F5C91451781F04C93AC01A5E08A
:101C900056954795AA95E1F7DE0102C0AA0FBB1F32
:101CA0004A95E2F7AD016A2B752B01963196D9CF93
:101CB000E8EDF0E080818E7F80831092E200109248
:101CC000DA001092E100A0EEB0E08C9181608C937C
:101CD00080818F77808319BCA7EDB0E08C918E7FD7
:101CE0008C9380818F7E80831092C302089520910F
:101CF000E4003091E50095E6A9012091EC00822FE7
:101D0000817020FF06C08091E80080FF06C080E05F
:101D100008952091E80022FD1AC08091F1028823E5
:101D200089F0853089F08091EB0085FD0FC020910E
:101D3000E4003091E50042175307F9F29150E1F6C3
:101D400084E0089582E0089583E0089581E0089595
:101D5000EF92FF920F931F93CF937C018B010E9410
:101D6000770EC82F811117C08091E80085FD0BC048
:101D70008091E8008E778093E8000E94770E882398
:101D800099F3C82F08C0F70181917F018093F1007A
:101D90000150110949F78C2FCF911F910F91FF909E
:101DA000EF900895CF93FC018091F102843001F50A
:101DB000C091E900CF702091EC00922F917020FD2E
:101DC00090E8C92B82E08093E9008091E80080FFD1
:101DD0000CC050E040E060E270E0CF010E94A80E2D
:101DE0008091E8008E778093E800CF70C093E9007F
:101DF000CF9108958091E90287FF13C08091E80098
:101E000082FF06C08091E8008B778093E80004C0D1
:101E10008091F1028111F2CF08958091F10288231F
:101E2000D9F38091E80080FFF8CF8091E8008E77A9
:101E3000ECCF982F9093E900242F762F50E089174C
:101E400031F07091EC002091ED005091F00021FDF7
:101E500007C09F5F973071F78093E90081E0089594
:101E60003091EB003E7F3093EB003091ED003D7FF1
:101E70003093ED003091EB0031603093EB007093C4
:101E8000EC002093ED005093F0002091EE0027FD30
:101E9000E0CF80E00895B0E0A0E0E1E5FFE00C9441
:101EA000A435C8EDD0E088818F7E8883E7EDF0E02F
:101EB00080818160808384E082BF81E08093C3025F
:101EC00088818E7F888302EE10E0F80110821092E4
:101ED000DA0081EEC82ED12CF601108288818F772E
:101EE000888388818068888388818F7D888319BCF6
:101EF0001092F1021092E8021092E7021092E602AC
:101F000090EEE92EF12CF70180818B7F8083888110
:101F10008160888342E060E080E00E94190FF60152
:101F200080818E7F8083F8018081816080838081C1
:101F300088608083F70180818E7F808388818061C3
:101F40008883CDB7DEB7E8E00C94C035FC01809102
:101F5000EF029091F00286179707A0F061157105C6
:101F600029F49091E8009E779093E80090E0611545
:101F7000710551F4911108C08091E80082FF34C0CE
:101F800080E00895BC01F2CF8091F1028823C1F175
:101F90008530C1F18091E80083FD30C08091E80078
:101FA00082FDEACF8091E80080FFE1CF8091F300CD
:101FB0002091F200382F6115710519F02830310594
:101FC00058F091E02830310509F090E02091E800C8
:101FD0002E772093E800CBCF81918093F100615060
:101FE00071092F5F3F4FE7CF8091F102882341F0C5
:101FF000853041F08091E80083FFBECF81E00895F5
:1020000082E0089583E00895089508958091C502BF
:1020100008952FB7F8946091BA027091BB02809135
:10202000BC029091BD022FBF08952091160122237A
:10203000C9F02091BE0227FF15C0E62FE695E69570
:10204000E695EE31D8F4E80FF92FF11D677021E025
:1020500030E001C0220F6A95EAF72095828128239B
:1020600022830895FC01329608962191621303C0E1
:10207000DF0111971C92E817F907B9F7089520912D
:1020800016012223C1F02091BE0227FF14C0E62FC3
:10209000E695E695E695EE31F8F4E80FF92FF11D97
:1020A000677021E030E001C0220F6A95EAF7828173
:1020B000822B82830895FC0132962FEF30E041910C
:1020C000641751F02F3F19F4411101C0232F3F5FD6
:1020D0003630A9F72F3F09F40895820F911D27FD8F
:1020E0009A95FC01628308952091B7023091B8025D
:1020F0002817390771F09093B8028093B702E091E6
:10210000B502F091B602309721F00084F185E02D00
:10211000099508952091B3023091B4022817390728
:1021200071F09093B4028093B302E091B502F09104
:10213000B602309721F00680F781E02D09950895C9
:10214000E091B502F091B602309729F00190F0814C
:10215000E02D0995089580E00895B0E0A0E0E3EB5C
:10216000F0E10C94A2358FEF9FEF4430510508F455
:1021700069C04091BE0241FB882780F990E0880F3A
:10218000991F42FB002700F910E0000F111F000FFC
:10219000111F802B912B40FBCC24C0F8D12C8C2913
:1021A0009D2943FB222720F9C22FE0E0DE2F53E0D8
:1021B000CC0FDD1F5A95E1F78C2B9D2B44FBAA27F2
:1021C000A0F9B0E0E4E0AA0FBB1FEA95E1F78A2B83
:1021D0009B2B45FBEE27E0F9F0E0A5E0EE0FFF1F9B
:1021E000AA95E1F78E2B9F2B46FB222720F930E0A2
:1021F000B6E0220F331FBA95E1F7822B932B47FBF2
:10220000222720F930E03695322F2227379527955F
:10221000822B932B2091BF02322F3170F32EE82EA8
:10222000F92A26952170B22EBB0CA82EBF28C50115
:10223000BB0CAA0BBB0BFB0180839183A283B383EE
:1022400090E080E0CDB7DEB7EAE00C94BE35809137
:102250008C0290918D029093140180931301089544
:1022600080E00895F894E82FE295EF70F0E031A156
:10227000282F2F7081E090E001C0880F2A95EAF79F
:10228000982F9095932391A392A1892B82A3789460
:1022900008959091BE0292FF06C0282F2871283021
:1022A000F9F4877F846093FF06C0282F28712831B6
:1022B000F1F4877E84612091BF0220FF06C0382F91
:1022C00038713830D9F4877F816021FF06C0282F0C
:1022D00028712831D1F4877E816194FD877E08952D
:1022E000282F24712430F9F68B7F8860DCCF282FCB
:1022F0002471243101F78B7E8861DDCF382F317155
:10230000313019F78E7F8860E0CF282F217121317D
:1023100021F78E7E8861E1CFCF93DF93EC01823885
:102320009105A9F1D8F58133910509F496C048F5D6
:102330008932910509F48AC08A9709F495C0C115BC
:1023400022E5D20708F0B6C0C11531E5D30708F081
:1023500026C1C83ED10508F09CC0C03ED10560F53D
:10236000C83AD10508F087C0C53AD10508F0EFC0DA
:10237000C130D10509F12097F9F0C430D105E0F45E
:1023800040C08533910509F45AC0C997C1F68091C0
:10239000BE02837089F0C0EED0E00EC0833E91058E
:1023A00099F170F4803E910501F1823E910539F674
:1023B0008091BE0282FD21C0CE01DF91CF910895B0
:1023C000863E910561F1873E910571F1843E91054C
:1023D00009F0B5CF8091BF0281FFEECF8091BE02A0
:1023E000C7EED0E084FD0DC0E7CF8091BE0280FD36
:1023F00007C19091BF0290FFDFCFC3EED0E084FF12
:10240000DBCFD0E0C0E0D8CF8091BE0282FDFBC020
:102410009091BF0290FDBFCF84FFCECFF2CF8091CD
:10242000BE0283FDDDCFC8CF8091BE0283FDEEC02A
:102430009091BF0291FFF0CFC4EED0E0BDCF80916C
:10244000BE0285FFB9CFC9E2D0E0B6CF8091BE020F
:1024500085FFB2CFC5E3D0E0AFCF8091BE0286FF4B
:10246000ABCFCAE2D0E0A8CF8091BE0286FFA4CF56
:10247000C1E3D0E0A1CFCF3BD10518F6C85AD0E0D8
:10248000CC0FDD1FCE5DDE4F0990D881C02DD46406
:1024900093CFC11540E5D40708F064C0C11580E4AE
:1024A000D80708F05CC0CE019A9581159F4108F4C9
:1024B00083CFA7CFC11536E5D30718F5C11545E57C
:1024C000D40708F084C0C11584E5D80708F07AC0A5
:1024D0009C2F969596959E0123703327C115D34561
:1024E00008F462C0C1E0D0E002C0CC0FDD1F2A9525
:1024F000E2F730E2939FC0011124C82BD92BDA6890
:102500005BCFC1158AE5D80778F4C11599E5D907DD
:1025100008F068C0C11528E5D20708F472CFDC2F97
:10252000CC27C06FD06A48CFCE019056811590421B
:1025300008F067CF8D2F8F710E94491190E0982F7E
:10254000882788279F719C012C2BE90149C0C55A17
:10255000D0E0C15EDE4FC881D0E0D0642DCFDF7007
:10256000D06A2ACFCE01E4E096958795EA95E1F707
:1025700083702C2F26952695237040E2249F90018E
:102580001124382B8C2F8370C1E0D0E002C0CC0F17
:10259000DD1F8A95E2F7C22BD32BDC680DCFDC2F31
:1025A000CC27C16FD06A08CFC1E0D0E002C0CC0F09
:1025B000DD1F2A95E2F720E2929FC0011124C82B6B
:1025C000D92BEBCFDC2FCC27C46FD06AF5CE8C2F64
:1025D0000E944911C82FD0E0DC2FCC27CC27DF7117
:1025E000D062EACE8C2F8F700E94491134E0D695CC
:1025F000C7953A95E1F7CF709C2FEC01D069DCCEFE
:10260000C9E3D0E0D9CEC2EED0E0D6CEC6EED0E05F
:10261000D3CE80910E02882331F010920E021092D8
:102620000D0210920C0208958095909167029823F4
:102630009093670208951092EB011092EA011092B4
:10264000E90108952091E8019091B70156E029131E
:1026500002C080E0089530E0529FF001539FF00DDA
:102660001124E854FE4F7181761306C070817813EF
:1026700003C07281741304C02F5F3F4F2770E7CFF0
:1026800081E00895452B39F0682381E06F3F09F020
:1026900080E08170089581E0FCCF8091E801909105
:1026A000B701981301C008958F5F8770FACF292F63
:1026B000933078F5863068F590E036E0239F800D02
:1026C000911D1124682F677023E0969587952A95B0
:1026D000E1F7FC01EE0FFF1FE80FF91FE855FE4F71
:1026E00050E040E080E0219130E0062E02C03695B7
:1026F00027950A94E2F721703327042E01C0220F98
:102700000A94EAF7822B4F5F5F4F4330510559F728
:10271000089580E00895292F933098F5863088F544
:1027200090E036E0239F800D911D1124282F277003
:1027300041E001C0440F2A95EAF723E0969587957A
:102740002A95E1F7FC01EE0FFF1FE80FF91FE8558E
:10275000FE4F30E020E070E05191DF011197CB0196
:10276000022E02C0969587950A94E2F781708195B2
:102770008527842385278C932F5F3F4F2330310596
:1027800059F7089592959F70963091F058F4925FA2
:102790009F70923058F4803F19F030F4883E30F446
:1027A00081E008959A5FF4CF843FD1F380E00895EB
:1027B000883EB0F3813FD1F7F3CF982F92959F7069
:1027C00011F0892F94E0282F2695269511F09E5F11
:1027D000822F869509F09F5F892F08959C013A9575
:1027E00021153F4150F5FC01EE27F170BC01662731
:1027F0007270AC01442754709C012227387094FFFA
:102800000EC080E1EF2B09F480E0672B09F08062B5
:10281000452B09F08064232B89F08068089581E0BE
:10282000EF2B09F480E0672B09F08260452B09F05B
:102830008460232B19F08860089580E008958091CA
:102840002F0281111CC08091A30190E0019665E0E8
:1028500070E00E94DD358093A30124E030E0281B66
:10286000390B4CE752E0249FC001259F900D349F07
:10287000900D11248D58994F0E94150E0895809146
:10288000A20190E00196817099278093A20121E036
:1028900030E0281B390B4CE752E0249FC001259FF4
:1028A000900D349F900D112485589E4F0E94150E57
:1028B00010922F020895B0E0A0E0E1E6F4E10C945C
:1028C000A4356C017B0164E670E088E70E949D34CA
:1028D000EC0197FD12C010E000E0F601E00FF11FDF
:1028E000849164E670E00E940B35EC01892B29F499
:1028F0000F5F1F4F0E151F0581F70E948235CE0115
:10290000CDB7DEB7E8E00C94C035809165029091B8
:102910006602911103C091E089270895882369F028
:1029200062E070E085EA95E10E945B14892B19F062
:102930008091650208951092650280916502EBCF47
:10294000CF93C0916502809166028823D1F00E94E6
:102950000910605A75418F4F9F4F609361027093C9
:1029600062028093630290936402C11108C062E026
:1029700070E083EA95E10E945B14892B29F0C091F5
:1029800065028C2FCF91089581E080936502F7CF87
:10299000CF93DF93C091FD04D091FE048A30C1F43F
:1029A0002091F402CE018D5F9240622F70E00E9470
:1029B0008635281B822F66E00E94D135C82FC15072
:1029C00018F4DF91CF91089580E20E94C814F7CFE8
:1029D0008D30E9F4CD5FD2402091F402622F70E097
:1029E000CE010E948635281B822F9E01280F311DA3
:1029F0002115324018F080E0D0E0C0E0C80FD11DB2
:102A0000C350DD4FD093FE04C093FD04DACF96E0AF
:102A1000FE01A5EFB2E001900D929A95E1F7803E9C
:102A200008F458C086E0FE0111928A95E9F7C0913A
:102A3000FD04D091FE0446E050E0BE0185EF92E037
:102A40000E9407369E012D5F3240892B41F1C9015A
:102A500045E0969587954A95E1F741E050E0BA0147
:102A600002C0660F771F8A95E2F7CB016091FB02E7
:102A70007091FC02862B972BB9016B5F7F4FE5E0CD
:102A800076956795EA95E1F702C0440F551F6A9560
:102A9000E2F7842B952B9093FC028093FB022A5F34
:102AA0003F4F4091F402642F70E0C9010E948635C7
:102AB000481B463010F4240F311D211572E03707F2
:102AC00010F030E020E023503D4F3093FE0420937F
:102AD000FD0477CFF6E08F9FB00111246A58794E3C
:102AE00046E050E0CE010E94FE35A1CFCF93DF93A8
:102AF000EC01FE018491811103C0DF91CF91089513
:102B00000E94C8142196F5CF8093C0027093C20230
:102B10006093C1028091F1028430F9F48093E9005E
:102B20008FEF9091E800815095FD06C095ED9A9544
:102B3000F1F700008111F5CF8091E80085FF0DC00D
:102B400050E040E063E070E080EC92E00E94A80E6C
:102B50008091E8008E778093E8000895BC0184E0BE
:102B60000E9484150895BC0183E00E948415089595
:102B7000CF93DF93EC01809116018823B1F180910E
:102B8000BE0287FF32C060E284E08093E9008FEFED
:102B90009091E800815095FD06C095ED9A95F1F76A
:102BA00000008111F5CF8091E80085FF1BC0809166
:102BB000160170E050E040E0811104C050E040E0B8
:102BC00068E070E0CE010E94A80E8091E8008E7748
:102BD0008093E80080E2FE01A6ECB2E001900D9245
:102BE0008A95E1F7DF91CF91089568E081E0CDCF3C
:102BF00081E08093E00080E28093D8001092C900C9
:102C00008FE19EE40197F1F700C0000087E090EBB0
:102C1000DC018093FF0490930005A0930105B0931D
:102C2000020588E19CE00FB6F894A89580936000B7
:102C30000FBE90936000FFCF019708F40895EFE96D
:102C4000FFE03197F1F700C00000F6CF0F931F931C
:102C5000CF93DF930CE812E0C7ECD0E0CE010E94E6
:102C60002436F80181938F012196CB3ED105B1F72F
:102C7000CDE1D5E1FE0185919491009711F0FC0121
:102C800009952C96F5E1CD3ADF07A1F7DF91CF91B9
:102C90001F910F9108950F931F93CF93DF9384306B
:102CA00030F5633020F5463010F5C42FD0E0CC0F5E
:102CB000DD1F2CE0629FC00DD11D112434E2839FE3
:102CC000C00DD11D1124CE0187960E942436082FF5
:102CD00010E0102F0027CE0188960E94243698011C
:102CE000282BC901DF91CF911F910F91089590E09A
:102CF00080E0F8CF462F20915F0230916002232BB5
:102D000099F4703F39F4603F79F480915D029091BD
:102D10005E020895843040F4733030F4663020F45D
:102D2000672F0E944B16089590E080E00895CF929F
:102D3000DF92FF920F931F93CF93DF936C0100916B
:102D4000F30280913002082BC7E0D0E010E0FC2EA7
:102D5000C8010C2E02C0959587950A94E2F780FD74
:102D60000CC02197A0F7F12C8F2DDF91CF911F91EF
:102D70000F91FF90DF90CF900895B6018C2F0E94A5
:102D80007A160E948C11019761F3EECFCF93DF93F7
:102D9000EC010E949716BE010E947A160E948C11C7
:102DA000DF91CF910895FC01808191810E94C61628
:102DB0000E94C2130895A5E0B0E0E1EEF6E10C94A4
:102DC000A93549835A8389819A81662399F0222300
:102DD00089F00E949716182F682F89819A810E9486
:102DE0008B1369817A81812F0E947A162596E3E000
:102DF0000C94C5350E945713182FF3CFFC01262FD2
:102E0000408151816281738184810E94DB16089523
:102E100083E290E00E942436883489F484E290E0D2
:102E20000E9424368B3F59F485E290E00E942436BC
:102E300091E08F3309F090E0892F8170089580E050
:102E4000FCCFCF9384E090E00E942436C82F82E22A
:102E500090E00E942436982F8C2FCF910895DB01AB
:102E6000FC013296259134914217530758F0FC012A
:102E7000349665917491A901CD010E94143690E0B9
:102E800080E008958FEF9FEF08950F931F93CF93E6
:102E9000DF930CE812E0C7ECD0E0CE010E942436AC
:102EA000F80161918F01681719F0CE010E94323646
:102EB0002196CB3ED10589F7DF91CF911F910F91DC
:102EC0000895DA019C012E5F3F4FF901459154911D
:102ED000F90125913491A217B30758F0FC013496FB
:102EE000859194910E9414360E94451790E080E0ED
:102EF00008958FEF9FEF0895CF93DF93CBEED0E04F
:102F000060E0CE010E9432362196C11584E0D807D8
:102F1000B9F7DF91CF9108951F93CF93DF93122FCD
:102F20008430E0F46330D0F44630C0F4C42FD0E0F5
:102F3000CC0FDD1F9CE0699FC00DD11D112494E2D0
:102F4000899FC00DD11D1124632FCE0187960E9449
:102F50003236612FCE0188960E943236DF91CF91B2
:102F60001F910895CF93C82F6FEF811168E483E21A
:102F700090E00E9432366FEFC1116BEF84E290E077
:102F80000E9432366FEFC1116FE385E290E00E943C
:102F90003236CF910895CF93C92F682F84E090E007
:102FA0000E9432366C2F82E290E00E943236CF913E
:102FB00008951F920F920FB60F9211242F933F93F3
:102FC0004F935F936F937F938F939F93AF93BF9331
:102FD000EF93FF938091E10082FF09C08091E200AE
:102FE00082FF05C08091E1008B7F8093E10080919A
:102FF000DA0080FF24C08091D80080FF20C080913B
:10300000DA008E7F8093DA008091D90080FF9DC026
:1030100080E189BD82E189BD09B400FEFDCF81E078
:103020008093F1028091C302811109C00E94580E61
:103030000E944B0F8091E20084608093E2008091B7
:10304000E10080FF17C08091E20080FF13C08091F3
:10305000E2008E7F8093E2008091E20080618093A5
:10306000E2008091D80080628093D80019BC85E08E
:103070008093F1028091E10084FF2BC08091E200F7
:1030800084FF27C080E189BD82E189BD89B5982F81
:10309000917080FFFBCF8091D8008F7D8093D80006
:1030A0008091E1008F7E8093E1008091E2008F7E2D
:1030B0008093E2008091E20081608093E200809141
:1030C000E802882309F447C084E08093F1028091EC
:1030D000F1028091E10083FF27C08091E20083FF2D
:1030E00023C08091E100877F8093E10082E080939C
:1030F000F1021092E8028091E1008E7F8093E1005E
:103100008091E2008E7F8093E2008091E2008061F6
:103110008093E20042E060E080E00E94190F80911D
:10312000F00088608093F000FF91EF91BF91AF9124
:103130009F918F917F916F915F914F913F912F91CF
:103140000F900FBE0F901F90189519BC1092F102AE
:103150001092C30274CF8091E30087FD93E09093B7
:10316000F102B5CF78941F921FB61F9211248F934E
:103170009F93AF93BF938091BA029091BB02A091AD
:10318000BC02B091BD020196A11DB11D8093BA028F
:103190009093BB02A093BC02B093BD02BF91AF91CC
:1031A0009F918F911F901FBE1F9018959C014FB744
:1031B000F8948091BA029091BB02A091BC02B091A8
:1031C000BD024FBF821B930B08952FB7F8948091D7
:1031D000BA029091BB02A091BC02B091BD022FBF78
:1031E0000895CF93C82F8091BF0282FF0CC08091B9
:1031F0000E028C1741F00E94E51890930D02809307
:103200000C02C0930E02CF91089580918E0290918E
:103210008F02892B89F00E94E51820910C023091D1
:103220000D02AC01421B530B81E020918E023091C4
:103230008F024217530708F480E08170089580914F
:1032400067029091F202892B8093820180910E0295
:10325000882319F180918E0290918F02892B29F099
:103260000E94051981110E94091380918201909199
:103270000E02892B80938201809116018823E1F14F
:103280008091BE0287FF38C08EE1E4E8F1E090E073
:103290008150A0F591110E94091340E250E06CEEBC
:1032A00071E082E891E00E940736892B21F180E2EB
:1032B000E2E8F1E0ACEEB1E001900D928A95E1F721
:1032C000E091B502F091B6023097A9F08091160115
:1032D000882359F08091BE0287FF07C08091820148
:1032E0008093830186E0809382010280F381E02D48
:1032F00082E891E00995089586E0C7CF21912223C5
:1033000039F29F5FC5CF80911501877F80931501AA
:103310009091F2029D7F9093F20284FF08C08F7E0D
:10332000809315018091670282608093670280918B
:10333000150185FF08C08F7D80931501809167027C
:103340008062809367020E941F19089590E080E0D8
:103350000E948A1090E080E00E9474101092F202A5
:103360000E941F1908958093F3020E94A6190895E0
:103370008091F302982F9670963021F488600E9415
:10338000B3190895877FFBCF21E030E001C0220F01
:103390008A95EAF720958091F30282230E94B3195F
:1033A00008959091EB01809589238093EB01282F5C
:1033B000277091F4282F082E000C330B9217130658
:1033C00059F09091BF0292FF07C08595859585952C
:1033D0000E94C4190E941B1308959091BF0292FB92
:1033E000222720F9281769F080FB92F99093BF02F9
:1033F0008091BE029091BF020E94CB1782E00E9492
:10340000D119089521E030E001C0220F8A95EAF732
:103410008091F302822B0E94B31908959091BF020C
:1034200092FF10C098E0899F90011124622B609355
:10343000EB010E94021A0E94E5189093EA01809322
:10344000E90108950E94021A0895809330020E94B3
:10345000A61908951092670280911601E4E8F1E040
:10346000882361F08091BE0287FF08C08EE1DF01F2
:103470001D928A95E9F70E94A619089586E0F7CF74
:10348000AAE2B0E0E6E4FAE10C94A93589EE92E014
:103490002091F100DC012D93CD01B2E0813F9B072B
:1034A000B9F78091EA02833009F472C0B8F4813030
:1034B00009F449C0823009F4B3C08091E80083FF69
:1034C00096C28091E9029091EA029A3008F08FC288
:1034D000E92FF0E0E859F94C0C94F1358A3009F401
:1034E0008EC08B3009F471C0893039F78091E902C0
:1034F000813219F78091ED029091EE02009711F060
:103500000297D9F68091E800877F8093E800809148
:10351000E80082FF38C09091F3008091F20002979A
:1035200031F48091F100813011F0863021F48091E6
:10353000F1008093C5028091E8008B778093E800CA
:103540000E94FA0EBACF8091E902813A09F0B5CF14
:103550008091E800877F8093E8008091ED02909150
:10356000EE02892B61F460E286EC92E070E00E944A
:10357000A60F8091E8008B778093E8009ECF60E0F3
:1035800090E080E0F3CF8091F1028111C0CF95CF20
:103590008091E902813A09F090CF8091ED029091FB
:1035A000EE02892B09F089CF8091E800877F809314
:1035B000E8008091E80080FFFCCF809116018093A5
:1035C000F1008091E8008E77B9CF8091E9028132D5
:1035D00009F073CF8091ED029091EE02892B09F0F2
:1035E0006CCF8091E800877F8093E8000E94FA0EFC
:1035F0008091EB02809316010E942A1A5ECF80917F
:10360000E902813209F059CF8091E800877F8093E9
:10361000E8000E94FA0E8091EC028093C4024DCF24
:103620008091E902813A09F048CF8091E800877FD4
:103630008093E8008091E80080FFFCCF8091C40275
:10364000BECF803899F0823809F0D1C18091ED0267
:103650008F70873008F0CBC18093E9008091EB0038
:1036600085FB882780F91092E90006C08091E60268
:103670009091E702911182609091E800977F90937A
:10368000E8008093F1001092F1008091E8008E77BD
:10369000AAC1882309F498C1823009F0A8C1809199
:1036A000EB0281119BC18091ED028F702FEF280FEB
:1036B000263008F09CC18093E9002091EB0020FFA8
:1036C0008DC1933031F48091EB0080628093EB00E8
:1036D00085C19091EB0090619093EB0021E030E088
:1036E00001C0220F8A95EAF72093EA001092EA00BF
:1036F0008091EB008860EACF811179C11091EB02D3
:103700001F778091E3008078812B8093E300809184
:10371000E800877F8093E8000E94FA0E8091E8001D
:1037200080FFFCCF8091E30080688093E30082E01B
:10373000111183E08093F1025AC18058823008F061
:1037400056C12091EB023091EC022C3DE3E03E07A4
:10375000A1F583E08A838AE289834FB7F894DE017A
:10376000139620E03EE051E2E32FF0E05093570043
:10377000E49120FF03C0E295EF703F5FEF708E2F62
:1037800090E0EA30C0F0C7968D939D932F5F24316F
:1037900059F74FBF8091E800877F8093E8006AE285
:1037A00070E0CE0101960E94A60F8091E8008B7711
:1037B0008093E8001CC1C096E7CF8091ED02909104
:1037C000EE02432F55274330510509F44AC078F5DE
:1037D0004130510509F485C08BE590E0E7EAF5E159
:1037E0004230510509F003C12091E800277F209362
:1037F000E8002091EF023091F0028217930708F45D
:103800009C0140E02115310509F070C041116EC0E6
:103810008091E80082FDC9CF8091F102882329F2CE
:10382000853019F28091E80083FFF2CFBECF41329C
:10383000510509F447C04232510509F0D8C0833020
:10384000910508F0D4C0FC01EE0FFF1FEC58FE4FAD
:103850000190F081E02D8F589E4FDC018C9190E01B
:103860001DC0332721303105E9F02115310579F0EC
:1038700022303105F9F02330310509F0B8C0E4E118
:10388000F6E1E4918E2F90E0E4E1F6E107C0E2E793
:10389000F6E1E4918E2F90E0E2E7F6E1009709F47B
:1038A000A6C0A2CFE4E4F6E1E4918E2F90E0E4E438
:1038B000F6E1F4CFE2E3F6E1E4918E2F90E0E2E36B
:1038C000F6E1ECCF8330910508F091C0880F991F85
:1038D000FC01E658FE4F0190F081E02D89E090E078
:1038E00083CF82E190E0E2E0F6E17ECF8091F102C9
:1038F000882309F45ACF853009F457CF8091E80026
:1039000083FD53CF8091E80082FD82CF8091E80053
:1039100080FF78CF9091F3008091F200211531055E
:1039200019F08830910550F041E0089709F040E027
:103930008091E8008E778093E80064CF44914093B3
:10394000F1003196215031090196E8CF803809F015
:103950004EC08091E800877F8093E8008091E80264
:103960008093F10092CE811142C01091EB0212308F
:10397000F0F58091E800877F8093E8001093E802DB
:103980000E94FA0E112311F084E005C08091E3003B
:1039900087FDFACF81E08093F10242E061EC81E0A3
:1039A0000E94190F42E261EC84E00E94190F42E28A
:1039B00061EC82E00E94190F42E260EC83E00E9419
:1039C000190F8091F10213C08091EB02813079F4DC
:1039D00081E0933009F080E08093E7021092E900E3
:1039E0008091E800877F8093E8000E94FA0E809122
:1039F000E80083FF0AC08091E800877F8093E80099
:103A00008091EB0080628093EB00AA96E3E00C9437
:103A1000C5351F920F920FB60F9211242F933F932B
:103A20004F935F936F937F938F939F93AF93BF93C6
:103A3000CF93DF93EF93FF93D091E900DF708091F4
:103A4000EC00C82FC17080FDC0E81092E9008091A1
:103A5000F000877F8093F00078940E94401A1092C3
:103A6000E9008091F00088608093F000CD2BCF704A
:103A7000C093E900FF91EF91DF91CF91BF91AF919A
:103A80009F918F917F916F915F914F913F912F9176
:103A90000F900FBE0F901F901895ECE8F2E0128E79
:103AA000138E8FEA90E09183808385E0848F28E8ED
:103AB00033E13383228322E330E0378B268B28ECFB
:103AC00030E0318F208F158E2AE030E0378F268F3F
:103AD00020E530E031A320A382A30E9445170E9475
:103AE0002A1A1092BF021092BE02EFEBF2E0808120
:103AF000846080838091BE029091BF020E94CB17A8
:103B00000E94261608958F929F92AF92BF92CF92F5
:103B1000DF92EF92FF921F93CF93DF9380905B022F
:103B200090905C0281E090E090935C0280935B0255
:103B30008FEEC82E84E1D82ED0E07601C0E014C00C
:103B4000F50125913491412F6C2F8D2F0E948C17F8
:103B500082E0A80EB11C1F5F163091F78CE0E80ED2
:103B6000F11CCF5FC33019F0570110E0E9CFDF5FE0
:103B700084E2C80ED11CD43001F70E944D1D9092F2
:103B80005C0280925B02DF91CF911F91FF90EF90DA
:103B9000DF90CF90BF90AF909F908F90089580E07E
:103BA0000E94B21760E086E290E00E9432360E94E6
:103BB000831D0E947C1781E00E94B217089568EE71
:103BC0007EEF90E080E00E94503660E082E090E07E
:103BD0000E94323660E083E090E00E94323610921C
:103BE000300260E084E090E00E94323664E082E2DD
:103BF00090E00E94323660E085E090E00E9432362C
:103C000060E086E090E00E9432366FEF87E090E05F
:103C10000E94323640E050E0BA0188E090E00E9415
:103C2000443660E08DE090E00E94323640E050E0A3
:103C3000BA0188E190E00E94443660E087E190E0BC
:103C40000E94323640E050E0BA018CE190E00E94E0
:103C5000443670E060E080E290E00E94503640E040
:103C600050E0BA0188E190E00E94443680E00E9472
:103C7000B2170E94CF1D40E050E0BA018FE090E003
:103C80000E94443640E050E0BA0183E190E00E9497
:103C900044360895CF92DF92EF92FF928FEF9FEF1D
:103CA0004430510508F46AC0FB01C080D180E28035
:103CB000F3800E942A1A8091BE02C0FA80F9B701EF
:103CC000A601769567955795479540FB81F9B70111
:103CD000A60122E076956795579547952A95D1F7E5
:103CE00040FB82F9B701A60133E0769567955795B9
:103CF00047953A95D1F740FB83F9B701A601E4E077
:103D00007695679557954795EA95D1F740FB84F9E5
:103D1000B701A601F5E07695679557954795FA9511
:103D2000D1F740FB85F9B701A601A6E07695679526
:103D300057954795AA95D1F740FB86F9B701A6019B
:103D4000B7E07695679557954795BA95D1F740FBBB
:103D500087F98093BE028091BF02D0FA80F9D1FA30
:103D6000CC24C0F8C0FA81F98093BF028091BE02D2
:103D70009091BF020E94CB1790E080E0FF90EF90FF
:103D8000DF90CF9008950E942A1A2FEF84E39CE0E1
:103D9000215080409040E1F700C0000088E19CE0A5
:103DA0000FB6F894A895809360000FBE90936000C2
:103DB000FFCF882341F080959091F2028923809370
:103DC000F2020E941F190895882339F09091F2029F
:103DD000982B9093F2020E941F190895882321F0D6
:103DE0000E9414130E941F190895882339F090919E
:103DF0006702982B909367020E941F1908958823E9
:103E000051F19CEF980F913A40F4682F82E891E0CD
:103E10000E9415100E941F19089590E2980F983083
:103E200050F4877091E001C0990F8A95EAF7892FC5
:103E30000E941413EFCF9BE5980F933028F490E085
:103E400080E00E948A100895885A873120F490E01B
:103E500080E00E9474100895A3E0B0E0E2E3FFE187
:103E60000C94A13519821A821B8280E5E82E81E02C
:103E7000F82E10E000E0CC24C394D12C29E5A22E2A
:103E800021E0B22EF70181917F018F3F09F445C0F7
:103E9000F894E82FE295EF70F0E021A18F70A60171
:103EA00002C0440F551F8A95E2F7CA01922F982B42
:103EB00091A392A18095892382A3789400C0E3E521
:103EC000F1E0912C31E021912F3F09F464C0A22F41
:103ED000A295AF70B0E090968C9190E02F7002C0E8
:103EE000959587952A95E2F780FD55C0832F982AEE
:103EF000330FAE16BF0639F7F701319780818F3F38
:103F000011F00E94321150EA5A95F1F7E1E0F0E029
:103F1000EC0FFD1FE00FF11F90820F5F1F4F03306A
:103F2000110509F0AFCF43E050E0BE016F5F7F4F56
:103F300086E192E00E94073611E0009709F410E054
:103F4000892B59F189819A81AB81809316029093D4
:103F50001702A093180281E0809311020E94E518D5
:103F60009093100280930F0280910F0290911002A3
:103F70000E94D6180597A8F08091160280935802E7
:103F800080911702809359028091180280935A02FF
:103F90001092110206C080E0AACF80911102811117
:103FA000E3CF80911502882399F0809113029091BC
:103FB00014020E94D618893E934050F082EE0E946F
:103FC000FF1E81EE0E94FF1E109215021092120237
:103FD000812F2396EBE00C94BD35CF93DF93EC015A
:103FE0000E94FF1ECE010E94EE139E01205E310949
:103FF0002830310510F0CD2B29F40E94EE1EDF9100
:10400000CF9108950E94D91EFACFCF93C82F88234D
:10401000D9F18CEF8C0F813AC8F580911601882375
:1040200011F18091BE0287FF1EC0EC2FE695E69548
:10403000E695F0E0EE57FE4F828190E04C2F4770FE
:1040400021E030E002C0220F331F4A95E2F78223BD
:104050009323892B91F06C2F82E891E00E94151038
:104060000E941F190AC0E4E8F1E08AE891E021917A
:10407000C21789F38E179F07D1F76C2F82E891E062
:104080000E943F100E941F19CF91089580E28C0F6B
:10409000883068F4C77021E030E001C0220FCA9573
:1040A000EAF780916702822B80936702EBCFEBE502
:1040B000EC0FE33040F4F0E0E15EFE4F808190E0F1
:1040C0000E948A10E1CFC85AC731F0F6EC2FF0E019
:1040D000EE0FFF1FEE5DFE4F808191810E947410F4
:1040E000D3CF1F93CF93DF93182FEB010E940520AE
:1040F000209739F4812F0E94FF1EDF91CF911F91ED
:1041000008958FE99FE00197F1F700C00000219723
:10411000EFCF6091AC027091AD02893321F06091D4
:10412000AA027091AB020E94712008950F931F9311
:10413000CF93DF93C42FD22FFC0182818823A9F073
:104140004093B2020E94E5189093B1028093B002AE
:10415000C77081E001C0880FCA95EAF70E94F51E7A
:10416000DF91CF911F910F9108951091B202141316
:1041700036C08091B0029091B1020E94D618209171
:10418000A4023091A5028217930748F5C0E2CD0F33
:104190001D17B9F080E2810F883040F4177081E07C
:1041A00001C0880F1A95EAF70E94EE1EC83048F445
:1041B00081E09D2F977001C0880F9A95EAF70E94C1
:1041C000F51E802F0E948920C83050F6D77081E0FC
:1041D00001C0880FDA95EAF70E94EE1EC1CFC770C2
:1041E00081E001C0880FCA95EAF7F6CFB0E0A0E001
:1041F000ECEFF0E20C94A235EC018AE0A82E2881C5
:10420000222309F48FC02130C9F599818A81913028
:1042100021F422960E94892005C0923029F422962A
:104220000E9405202196EBCF933021F422960E9424
:10423000FF1EF8CF943011F02196F4CF229630E093
:1042400020E0AE014F5F5F4F8053990B8A3091059C
:1042500050F02150310930F38FE99FE00197F1F7D9
:1042600000C00000F6CFA29EB001A39E700D1124E5
:104270009C01260F371F8981EA01E3CFE22FF0E08E
:10428000E15FFC4EB490822F86958695869590E0EE
:10429000FC01E150FD4EE4902770F12C022E02C08B
:1042A000F594E7940A94E2F731E0E322FF24FC015D
:1042B000E151FD4EC490D12C022E02C0D594C7947A
:1042C0000A94E2F731E0C322DD24FC01E152FD4E05
:1042D000049110E002C0159507952A95E2F7017048
:1042E0001127E114F10419F081EE0E940520C11498
:1042F000D10419F086EE0E9405208B2D0E948920A2
:10430000C114D10419F086EE0E94FF1EE114F104DD
:1043100019F081EE0E94FF1E0115110509F482CFEC
:104320008CE278CFCDB7DEB7EAE00C94BE35CF9300
:10433000DF93EC010E94EE139E01205E31092830CC
:10434000310510F0209741F40E94F51E8C2F0E9439
:104350000520DF91CF9108950E94E41EF7CF6623D8
:1043600029F02091F20222602093F2029C01305643
:10437000211540E2340720F0305E2115304108F469
:1043800099270E9497210895B0E0A0E0EAECF1E2BD
:104390000C94A5357C018B01D42E8091150182FFF0
:1043A0008CC0C0918A02D0918B02CE15DF0521F01E
:1043B000E114F10409F081C0809115018B7F809395
:1043C000150181FD73C08091880290918902A80136
:1043D000481B590B81E020911301309114014217C1
:1043E000530708F480E08170F82E80911501F0FAEF
:1043F00081F980931501FE0183E0F695E7958A9592
:10440000E1F7EE71FF27E859FD4F20813181AE01C0
:104410004F70552781E090E002C0880F991F4A95A0
:10442000E2F7FF2009F444C0822B932B9183808311
:104430008091670281FF08C080911501806180939F
:10444000150182E00E9414138091670285FF08C065
:104450008091150180628093150180E20E941413FF
:104460006F2DCE010E94AF21DD2031F08091A70297
:1044700085FF02C086FF3BC08091AA029091AB02EB
:104480000E941C1680918A0290918B029C013056EA
:10449000211540E2340720F0305E2115304108F448
:1044A00099270E94ED1F0E9483191DC081E09BCFB8
:1044B0008095909582239323B9CFC70199279701BF
:1044C0003056211540E2340728F0305E2115304186
:1044D00008F0C7010E94ED1F80918A0290918B0223
:1044E0008E159F0501F31093890200938802CDB7C2
:1044F000DEB7E7E00C94C135A7E1B0E0E2E8F2E214
:104500000C94A935942F4B8B252F5C8B6D8B7E8B58
:104510008F8B4E895F89622F892F0E9442138111F0
:1045200009C08091A6019091A70101969093A701DF
:104530008093A6018D8981111092F2021A8A198A3C
:1045400085E0FE017396DE011D9601900D928A951D
:10455000E1F78091BF0282FF1EC080918E02909190
:104560008F02892BC1F00E94E5182091E90130915A
:10457000EA01821B930B20918E0230918F028217E9
:10458000930720F08091EB0182FF6FC00E94051914
:1045900081110E94091386E0FE013D96DE01179607
:1045A00001900D928A95E1F7CE0107960E94F62AB6
:1045B000811111C086E0FE013796DE01119601904F
:1045C0000D928A95E1F74A855B8568858F810E9407
:1045D0004213882359F016E08091E8019091B701C9
:1045E000891331C06796E3E00C94C5352091B7017B
:1045F00030E0C9010196877099274091E80148177A
:10460000190699F096E0929FD001939FB00D112466
:10461000A854BE4FFE01319601900D929A95E1F794
:104620008093B7010E944D13D6CF0E942A1A109290
:10463000B7011092E80186E0E1EBF1E0DF011D92A5
:104640008A95E9F7C8CF819FC001112488549E4FF5
:104650000E94F62A882331F28091E80190E00196C9
:10466000877099278093E801B7CF82E00E94D11923
:104670008DCFA5E0B0E0EFE3F3E20C94AA35909380
:104680005E0280935D02811520E2920730F40E9461
:10469000ED1F2596E2E00C94C63580EF89838A836E
:1046A0001B820E94E5188160782F9D838C8349814D
:1046B0005A816B818D810E947C22EBCFA5E0B0E016
:1046C000E4E6F3E20C94AA3590935E0280935D02D7
:1046D000811520E2920730F40E9497212596E2E0AE
:1046E0000C94C63580EF89838A8381E08B830E9496
:1046F000E5188160782F9D838C8349815A816B8175
:104700008D810E947C22EACFA4E0B0E0EAE8F3E2E7
:104710000C94A0357C01FC0143815481618180812E
:104720000E9442138111D3C061E0C7010E94FE16AE
:104730008C01F7018281882309F4B2C6C801825135
:104740009F45409708F041C68FEF93E00E942436C2
:104750008111AEC06EEED62ED00E0BEE10E0D11051
:1047600036C019821A821B821C8299249A9468018D
:104770002FEFC21AD20AC8010E94243689831A82F6
:10478000882309F495C0813009F087C0580132E0D0
:10479000A30EB11CC6010E942436C82E8A8388232A
:1047A00009F486C0C5010E942436D82E8FEF8C0DE7
:1047B0008330D8F4580143E0A40EB11CDB82DD2025
:1047C00021F0CE0101960E94F6208501D0CF01157F
:1047D000F4E01F0709F46CC0C8010E94243681115F
:1047E00001C0DA940F5F1F4FBACF8BEF8C0D83306F
:1047F00070F5C8010396DB825C01DD2031F35801BE
:1048000054E0A50EB11C0E9424368C838823E9F263
:104810000B811C8101308FEF180710F0102F00273B
:1048200096E0C91681F0E7E0CE1649F0C8010E9473
:104830005E238091AA029091AB020E941C16C801CF
:104840000E943923C2CFC8010E945E23BECFF4E08C
:10485000CF12BBCF580124E0A20EB11CC8010396B1
:104860000E942436DD2021F1882311F18150990B1B
:10487000989E9001999E300D11244D2D4150550B5D
:10488000CA01820F931F019708F49FCFEFE9FFE061
:104890003197F1F700C00000F6CFCE0101960E94DB
:1048A000F620560192CF81E00E94021A0E94B819A8
:1048B0008091EB01877059F0F7018281882339F0EC
:1048C0008091BF0282FF03C082E00E94D11924962A
:1048D000ECE00C94BC3581E00E94C419E7CF82E083
:1048E000E3CF80911501816080931501ABC5809164
:1048F00015018E7F809315010E948319A3C58091B5
:1049000015018F7E013E110531F0053E1105C1F400
:10491000809115018F7D809315018091150180FF95
:10492000A0C5F70182810832110528F50E31110565
:1049300008F074C00430110580F581118EC591C551
:10494000C80190568115E0E29E0720F0905E811527
:10495000904118F78091150182FF83C58091A902CB
:1049600081FD7FC52DE132E040E0B60190E080E0BE
:104970000E94C42176C50933110558F40D32110582
:1049800018F40B321105C9F69091A70292FDD5CF0C
:1049900008C004361105C1F3D0CF9091A70294FD51
:1049A000CCCF882309F4A1C09091670280910E02B8
:1049B000282F292B322F3D7FB1F110928B021092BC
:1049C0008A023091A70231FD2EC0F80143E0F6952E
:1049D000E7954A95E1F7EE71FF27E859FD4F9801F9
:1049E0002F70332781E090E002C0880F991F2A952D
:1049F000E2F78095909520813181822393239183E2
:104A0000808360E0C8010E94AF2180910E028D7FFB
:104A10000E94F11882E00E94D1194ACF9091A7021A
:104A200093FD8BCFBECF36E0F701ADE1B2E0019050
:104A30000D923A95E1F710921F0210922102109206
:104A40002002A0908A02B0908B020A151B05B1F5D6
:104A50003091A70235FF32C04091150141FB9924E6
:104A600090F841FF02C036FF29C040918802509162
:104A70008902B601641B750B4091A4025091A502F6
:104A800064177507D8F491FF08C080911501806103
:104A90008093150182E00E9414138091670285FFC4
:104AA00008C08091150180628093150180E20E9408
:104AB0001413692DC5010E94AF21FACE9091150102
:104AC00021FB91F9909315018D7F0E94F1181093AD
:104AD0008B0200938A02D0928902C0928802809150
:104AE000150184608093150195CF970140E0B601D0
:104AF000C8010E94C421DCCE053F8CE5180709F4EB
:104B00005FC008F457C0063FECE51E0709F45EC01D
:104B1000F7013281332309F4CFC41092B20203307B
:104B2000FDE51F0708F05EC00A3F2CE5120730F4D0
:104B3000C80182509C45449708F05EC00E9421172E
:104B40009093BF028093BE0201318CE5180709F4EF
:104B500077C108F0EDC00930ECE51E0709F45EC12D
:104B600008F0BBC005302CE5120709F44FC108F06E
:104B7000A0C003304CE5140709F440C108F042C15D
:104B800002308CE5180709F433C18091BE02909180
:104B9000BF020E94CB170E942A1A8ACE07E225EE96
:104BA00045EE68ED7CE578C406E221EE40EE63EF69
:104BB0007CE572C407E225EE44EE64EF7CE56CC44C
:104BC00006E221EE42EE65EF7CE566C407E225EEE3
:104BD00046EE66EF7CE560C408E221E045EE69ED53
:104BE0007CE55AC401364DE5140709F4A7CF053A10
:104BF0005DE5150709F4A2CF06318CE5180709F425
:104C000060C40A359DE5190709F473C108F04CC169
:104C10000115FCE51F0709F452C10E3D1C4509F4BE
:104C20005BC1F701828100811181882309F465C18C
:104C3000C8010E949716D82E682FC8010E948B13B6
:104C4000B8018D2D0E947A160E948C118C01882E3D
:104C5000F701C280D580D2943FE0D3228091EB014E
:104C60008770C1F0AC2CCC20B1F0812F807F8034D4
:104C700021F080E2800F883068F08091BF0282FFCF
:104C800009C082E00E94D1198091EB018770AA24AB
:104C9000A3948111A12C912E92942FE09222FBE0FB
:104CA000F91508F4A6C1E92DF0E0EE58F94C0C9482
:104CB000F1358091BE02806207309CE5190709F446
:104CC0009AC08091BE0280610830ECE51E0708F4AE
:104CD00092C08091BE0280648EC08091BE028B7FA4
:104CE0000D30FCE51F0709F486C0A0F48091BE02D8
:104CF0008E7F0B303CE5130709F47DC08091BE0226
:104D00008C600C304CE5140708F475C08091BE022D
:104D10008D7F71C08091BE028F7E0F305CE51507DC
:104D200009F469C008F480C08091BE028F7D63C021
:104D30000D3F9CE5190709F47FC058F50531FCE5E6
:104D40001F0709F487C098F48091BE02837F033166
:104D50003CE5130709F44FC008F476C00E942A1AF4
:104D60009091BE02892F97FB87F9805844C00B3F72
:104D70005CE5150709F44EC008F05AC08091BF02E7
:104D800081600A3F9CE5190709F0FFCE8093BF02BE
:104D9000FCCE0130EDE51E0709F468C0C0F4809137
:104DA000BF028C7F0F3F2CE5120781F38091BF0279
:104DB000836001153DE5130748F38091BF02982FEA
:104DC000909591708E7F892B90FB81F9DFCF013612
:104DD0004DE5140709F450C0053A5DE5150709F4DF
:104DE00052C002308DE5180709F0CFCE60E03FC019
:104DF0008091BE0281608093BE02C7CE8091BE02C8
:104E00008260F9CF8091BE028460F5CF8091BE02AE
:104E10008860F1CF8091BF028260B8CF0E942A1AC9
:104E20008091BE028068E7CF8091BE02877FE3CF8A
:104E30008091BF028E7FAACF8091BF028D7FA6CFC7
:104E40008091BE028F7BD7CF0E942A1A8091BE022A
:104E50008F77D1CF8091BE0282FB992790F921E014
:104E6000922790FB82F990FB83F9C5CF61E08EE039
:104E700090E00E94323689CE9091BE02892F8F7EBB
:104E800094FF8061B8CF9091BE02892F8E7F90FFF2
:104E90008160B1CF8091A40169E2811165E382E86C
:104EA00091E00E9415103AC30C353DE51307B9F0A7
:104EB00010F1073A1D4509F0B4CE0E94C31E0E94AE
:104EC0002A1A8FEF94E3ECE081509040E040E1F744
:104ED00000C000000E94F8150E94DF1DEECF8091F7
:104EE000BF0282FB882780F991E089270E94ED1993
:104EF00098CE81E0FBCF80E0F9CFC8010E94571324
:104F0000D82E9ECE212F2F70B22E812F807F19F0A8
:104F1000B29490EFB922CC20B9F0BB2069F080E2C6
:104F2000800F883010F0811009C080916702B82A84
:104F3000B09267020E941F19802F59C08091F2021F
:104F4000B82AB092F202F6CF802F0E94FF1EBB203B
:104F500009F44FC080E2800F883010F0811004C047
:104F60008B2D0E94141306C0B0948091F202B822D7
:104F7000B092F2020E941F193CC0312F3F70B32E35
:104F8000812F807F803219F0B29480EFB822882080
:104F9000F1F041E0841609F4A8C0CC2009F4B1C0B6
:104FA000DD2009F479C020E0F70140815181628160
:104FB000738184810E94DB168091A90281FDBCCFA0
:104FC000F701858180FFB8CF8F70858365C08091A0
:104FD000BF0282FD41C0CC20C9F1BB2039F08091D5
:104FE0006702B82AB09267020E941F1980E00E94EF
:104FF0000520492D4850550B4430510510F40E94AE
:10500000A010C8010E94C2138111C0C11092A70153
:105010001092A601AA20A9F08091EB0180FD11C099
:10502000F70112828595859585950E94021AC70120
:105030000E9484238091EB018595859585950E943A
:10504000C41960E0C7010E94FE1641CC80E00E94B6
:10505000FF1EBB2071F284CFCC2011F1D11004C00F
:1050600080910E028B2919C051E0D51206C08091A3
:105070000E028B290E94F118BCCF8091A8028230C9
:1050800078F3D812EDCF0E9409139091A5018B2DD2
:10509000892B89138093A5018B2D0E94F51EA9CF22
:1050A000D11003C00E94091317C08091A80291E09B
:1050B000D91216C0823008F49CCF809167028B21F0
:1050C00009F497CF0E9409139091A5018B2D80952B
:1050D000892389138093A5018B2D0E94EE1E89CF11
:1050E000823000F3D812DECF84CF8091AE02CC2084
:1050F00021F08D1508F47DCFCFCFD81608F079CFE9
:10510000EBCFDD2049F3F9E38F1238C18091AC0277
:105110009091AD020E941C16802F0E94FF1E69CF45
:10512000812F86958695837061F0813009F061CF7B
:10513000C8019370C11002C090E080E00E9474101A
:1051400058CFC8019370C11002C090E080E00E9467
:105150008A104FCF812F837091F5C1104ACF402F15
:10516000429546954770440F440F802F8F70042E50
:1051700001C0880F0A94EAF7202F207104FF07C0AE
:105180002FE030E001C0220F4A95EAF72095312F39
:10519000369536953370323069F050F440913002D4
:1051A000313029F0822B84230E94251A22CF842BB0
:1051B000822BFACF282B809130028227F5CF86955B
:1051C000CC2011F0812F8170882309F412CF402F59
:1051D000429546954770440F440F802F8F70042EE0
:1051E00001C0880F0A94EAF7202F207104FF07C03E
:1051F0002FE030E001C0220F4A95EAF72095312FC9
:10520000369536953370323069F050F44091F302A0
:10521000313029F0822B84230E94B319EACE842BEB
:10522000822BFACF282B8091F3028227F5CF212FF2
:105230002F70B22ECC2029F0822F0E94021A802FCC
:105240002CCF802F0E94EE1E8B2D0E94C419D1CE30
:10525000802F32EF8316B1F1381570F040EF8416CD
:10526000D1F051EF851691F0CC2009F482C0D11015
:1052700063CE812F8F712AC093EF891651F1E4EF2D
:105280008E12F2CF8091BF0282FD2FC0812F8F71CD
:10529000CC20D9F21BC08091AE02CC2079F0D81678
:1052A00008F0A7CE212F2F7181E090E001C0880F78
:1052B0002A95EAF79091F3028927AECF8D1508F46D
:1052C00098CEF0CF812F8F71C110BFCF0E94021AEC
:1052D00090CE80E0CC2009F49FCF81E0912F9F7188
:1052E00001C0880F9A95EAF797CF8091A802823083
:1052F00040F1CC20D1F09091EB019770943041F4C3
:105300000E941B13812F8F710E94C419A12C71CE92
:10531000D816E0F7F12FFF71BF2E8F2F0E94021ACF
:1053200063E08B2D0E940E1AF1CFD81630F00E9448
:105330001B1364E0812F8F71F5CF81E00E94D1199A
:10534000E5CFCC2059F0212F2F71B22E822F0E9451
:10535000021A63E08B2D0E940E1A4BCE81E00E9450
:10536000D11931E03D1508F044CE82E00E94D119F8
:1053700040CEDD2041F0893309F4C8CE8091AA02E5
:105380009091AB02C7CE812F8F715FCFCC2019F0E7
:10539000D1103CCE3FCED11039CE20E0F701408174
:1053A00051816281738184810E94DB168091A90200
:1053B00083FF2CCE8091A6019091A701029709F05E
:1053C00025CE802F0E94892021CE0031FFE51F07C6
:1053D00009F469CA01312FE5120709F480CA8091E6
:1053E0002F0291E0892780932F028091A70280FFEE
:1053F00038C00E94E5186C01F7018281882309F406
:105400007ECA8091150182FF08C02DE132E040E0A4
:10541000B60190E080E00E94C4210B31FCE51F073B
:1054200009F45FCA0C312CE5120709F460CA9091A7
:105430001501892F8E7F90FF81600A313CE51307AB
:1054400009F458CAC8019056811540E2940728F023
:10545000905E8115904108F060CA10928B02109204
:105460008A02033FFCE51F0709F49ECB08F044CBFA
:10547000083D3CE5130709F491CB093D4CE51407C1
:1054800009F4AACB073D5CE5150709F041CB06E21C
:1054900021EE41EE67ED7CE5C7010E94962008CA27
:1054A00000313FE5130709F416CA01314FE514072F
:1054B00009F09BCF82E010CA06315CE5150709F0C0
:1054C000B0CB80916702982F9A7A2091A60220FF94
:1054D00004C0482F447409F090E021FF04C0482F15
:1054E000417109F090E022FF04C0482F487809F08C
:1054F00090E023FF03C0827209F090E0332309F4A7
:10550000C9CC81E0911101C080E08093A40169E2DF
:10551000911165E382E891E00E943F100E941F19FB
:10552000C7C9B0E0A0E0E7E9FAE20C94A3358091A6
:10553000B601807F09F052C08091B301882309F43D
:105540004DC0C091E80186E0B82E8091B7018C175C
:1055500009F444C0F090B101E090B201C090B401F0
:10556000D090B501A6016E2D8F2D0E944213D0E080
:10557000811139C0BC9E8001BD9E100D1124F8011F
:10558000E854FE4F81818E112EC080818F112BC077
:105590008281811128C0E380F480EC18FD0860E06E
:1055A00081EB91E00E94FE168091A4029091A502E9
:1055B000E816F906C0F48091B6018F70806180937F
:1055C000B601F801E354FE4F80818F7080618083C3
:1055D00081EB91E00E9484230E944D13CDB7DEB78A
:1055E000E9E00C94BF352196C770AFCFA1E1B0E0E0
:1055F000ECEFFAE20C949B358C0185E0F801DE01BA
:105600001D9601900D928A95E1F7D8014C90119664
:105610005C9011971296EC9012971396CD90DC90B7
:1056200060E081EB91E00E94FE1681EBA82E81E004
:10563000B82E8090B4019090B501A4016091B201A0
:105640008091B1010E944213811183C1F090B30196
:10565000F601E819F9094F0160E0FF2009F42FC1B4
:10566000C5010E94FE166090A4027090A5023090C1
:10567000B6018614970408F0E4C04091B40150913B
:10568000B501B090B101A090B201832D807F6A2D49
:1056900009F08FC08B2D0E944213FE2C81111DC07A
:1056A000D80111968C9111978A1117C08C918B118A
:1056B00014C0E11012C0832D8F7080618093B601F9
:1056C00081EB91E00E9484238091B601F8018583EB
:1056D0008F2D6196E1E10C94B735F4EF6F16F1E090
:1056E0007F0620F48091A90280FF21C0A601652DCC
:1056F000842D0E944213811118C081E08E2580FF05
:1057000016C04E2D652D842D0E942213882379F01A
:1057100081EB91E00E94842386E0E1EBF1E0DF0180
:105720001D928A95E9F7F12CD3CF80E0E8CFA6014E
:10573000652D842D0E944213811124C081E08E25A5
:10574000B82FB170CB2E80FF2BC04E2D652D842D30
:105750000E942213D82E811123C04D865E868D852E
:105760009E850E94C616292F22952F70223060F048
:10577000243088F49F7061F0F8019581907F41F4A6
:10578000FD2CA6CF80E0DCCF9F7011F08823C1F301
:10579000805E8830A8F3C8010E948423DC2CF0CFFF
:1057A000EE2009F495CF8091B60181608093B60117
:1057B000BACF8B2D0E944213811119C0D8011196C6
:1057C0008C9111978A1113C08C918B1110C0E1102C
:1057D0000EC015963C92C8010E94842386E0F80111
:1057E000A1EBB1E001900D928A95E1F771CFC8016C
:1057F0000E94D316882309F1EE20F9F08091B601BA
:10580000803270F02091B1013091B20138872F833E
:105810001986DB86CA868C87CE0107960E94842370
:1058200086E0F801A1EBB1E001900D928A95E1F7D5
:105830000E94912AFF24F3944BCFC8010E94842335
:10584000F9CF832D807F09F463CF9090B1018090D0
:10585000B2014091B4015091B501682D892D0E948B
:105860004213811113C0F801818188110FC080811A
:1058700089110CC0E1100AC03582C8010E9484233E
:1058800086E0D5011D928A95E9F722CFC8010E94D2
:10589000D316882391F2EE2081F28091B6018032F6
:1058A00008F4BECF2091B1013091B2013A8329832F
:1058B0001B82DD82CC828E83CE010196AFCF81EB3D
:1058C00091E00E94FE168091A4029091A502881694
:1058D0009906B0F6FE2CEE2009F4AFCFE090B101AE
:1058E000D090B2014091B4015091B5016D2D8E2D33
:1058F0000E94421381111FC0F80181818D111BC0CC
:1059000080818E1118C08091A90282FD67CF90918D
:10591000B60190FD63CF907F09F460CF8091B6010E
:105920008583903F09F457CF982F907F905F8F70B9
:10593000892B858350CFC8010E94D316811170CF67
:105940008091B60181608093B601C8010E948423D2
:10595000BFCEEE2009F471CFC8010E94D316F82EF5
:10596000882309F46ACF86E0F801A1EBB1E0019049
:105970000D928A95E1F78091B1019091B2010E9458
:10598000C6160E94912AA4CECF93C62F81110FC0B4
:105990009091F30280913002892B0E94DD138130B7
:1059A00049F08823B1F08230A1F08330C9F081E062
:1059B000CF9108956AE070E08EE4C11101C08BE4DC
:1059C0000E94712080912F0291E0892780932F02FD
:1059D000EECF6AE070E089EAC111F2CF8AEAF0CF37
:1059E000CC23B9F080911502811109C081E0809328
:1059F000150281EE0E94FF1E82EE0E9405200E9489
:105A0000E51890931402809313028BE20E94892080
:105A1000CECF809112028111F2CF81E080931202E9
:105A200082EE0E94052081EEE8CF1F921FB61F92E2
:105A300011248F939F93AF93BF938091B9028111EB
:105A400013C08091BA029091BB02A091BC02B091A8
:105A5000BD024196A11DB11D8093BA029093BB0275
:105A6000A093BC02B093BD02BF91AF919F918F9163
:105A70001F901FBE1F901895CDB7DEB7E6970FB6E3
:105A8000F894DEBF0FBECDBF85B7806885BF85B7F0
:105A9000806885BF84B7877F84BF0FB6F894A895C8
:105AA00080916000886180936000109260000FBE5A
:105AB00080E890E00FB6F8948093610090936100C5
:105AC0000FBE80E391E190938101809380010E9459
:105AD00026160E94580E0E944B0F8091E2008460AF
