:100000000C94DB0D0C94130E0C94130E0C94130E25
:100010000C94130E0C94130E0C94130E0C94130EDC
:100020000C94130E0C94130E0C9466180C94401E32
:100030000C94422D0C94130E0C94130E0C94130E6E
:100040000C94130E0C94130E0C94130E0C94130EAC
:100050000C94130E0C943F190C94130E0C94130E65
:100060000C94130E0C94130E0C94130E0C94130E8C
:100070000C94130E0C94130E0C94130E0C94130E7C
:100080000C94130E0C94130E0C94130E0C94130E6C
:100090000C94130E0C94130E0C94130E0C94130E5C
:1000A0000C94130E0C94130E0C94130E050109807E
:1000B000A101850319012AB700150126B700950192
:1000C00075108100C0050C0901A101850419012AE0
:1000D000A002150126A002950175108100C005013E
:1000E0000906A1018506050719E029E71500250184
:1000F0009508750181020507190029EF15002501F2
:1001000095F075018102050819012905950575010C
:100110009102950175039101C00660FF0961A1017B
:100120000962150026FF00952075088102096315F4
:100130000026FF00952075089102C005010906A15F
:1001400001050719E029E7150025019508750181CA
:10015000029501750881010507190029FF15002680
:10016000FF00950675088100050819012905950508
:1001700075019102950175039101C0000000000016
:10018000000000000000000000000000000000006F
:10019000000000000000000000000000000000005F
:1001A000000000000000000000000000000000004F
:1001B00000000000000000000000000000808080BF
:1001C0004040202010080402040810102020404065
:1001D000808000000000000000000000000000001F
:1001E000000000000000000000000000000000000F
:1001F00000000000000000000000000000000000FF
:1002000000000000000000000000000000000000EE
:1002100000000000000000000000000000000000DE
:1002200000000000000000000000000000003FC1CE
:1002300001010202040404040202010101000000A1
:10024000000000800000408080400000303000004E
:100250000000010264180412C2CA2488F0808040A1
:1002600040404020202020101010100808080804EA
:100270000404040202020201010101000000000066
:10028000000000000000000000000000000000006E
:10029000000000000000000000000000000000005E
:1002A00000000000000000000000000000E0180650
:1002B0000100000000000000000000008083834077
:1002C0004040402021212010101010080808080488
:1002D0000404040202020201010101000000000006
:1002E000000000000000000000000000000000000E
:1002F00000000000000000000000000000000000FE
:1003000000000000000000000000000000000000ED
:10031000000000000000000000000080808080409D
:100320004040402020202010101010080F08080422
:100330000404040204081010202040404142249884
:10034000C088888C9C1C1E0E060000000000000067
:10035000000000000000000000000000000000009D
:10036000000000000000000000000000000000008D
:10037000000000000000000000000000000000007D
:10038000000000000000000000000000000000006D
:10039000000000000000000000000000000000005D
:1003A000000000000000000000000000000000004D
:1003B000000000000000000000000000000000003D
:1003C000000000000000000000000000000000002D
:1003D000000000000000000000000000000000001D
:1003E000000000000000000000000000000000000D
:1003F00000000000000000000000000000000000FD
:1004000000000000000000000000000000000000EC
:1004100000000000000000000000000000000000DC
:1004200000000000000000000000000000000000CC
:10043000000000000000000000808080404020207C
:1004400010080402040810102020404080800000A2
:10045000000000000000000000000000000000009C
:10046000000000000000000000000000000000008C
:10047000000000000000000000000000000000007C
:10048000000000000000000000000000000000006C
:10049000000000000000000000000000000000005C
:1004A000000000000000000000003FC10101020246
:1004B00004844444428201010100000000000080E5
:1004C0000000408080400000303000000000010249
:1004D0000404080810204080808080404040402074
:1004E000202020101010100808080804040404023A
:1004F00002020201010101000000000000000000F2
:1005000000000000000000000000000000000000EB
:1005100000000000000000000000000000000000DB
:10052000000000000000000000E018060100000CC0
:1005300003000218190005FE8083834040404020DC
:1005400021212010101010080808080404040404D5
:1005500008304080800000018698600000000000A4
:10056000000000000000000000000000000000008B
:10057000000000000000000000000000000000007B
:10058000000000000000000000000000000000006B
:10059000000000000000008080808040404040203B
:1005A00020202010101010080F0808040404040272
:1005B0000202020101010100000000000000000031
:1005C00000000000000000000000060F0F070303FA
:1005D00061F0F8FC600101013C78F8F07000000067
:1005E000000000000000000000000000000000000B
:1005F00000000000000000000000000000000000FB
:1006000000000000000000000000000000000000EA
:1006100000000000000000000000000000000000DA
:1006200000000000000000000000000000000000CA
:1006300000000000000000000000000000000000BA
:1006400000000000000000000000000000000000AA
:10065000000000000000000000000000000000009A
:10066000000000000000000000000000000000008A
:10067000000000000000000000000000000000007A
:10068000000000000000000000000000000000006A
:10069000000000000000000000000000000000005A
:1006A000000000000000000000000000000000004A
:1006B00000008080404040202020202018040201BB
:1006C000020408102020404080800000000000004C
:1006D000000000000000000000000000000000001A
:1006E000000000000000000000000000000000000A
:1006F00000000000000000000000000000000000FA
:1007000000000000000000000000000000000000E9
:1007100000000000000000000000000000000000D9
:100720000000000000003FC10101020204040404B3
:100730000202010000000000000000800000408074
:10074000804000003030000000000102040408086E
:100750001020408080808040404040202020201099
:100760001010100808080804040404020202020120
:100770000101010000000000000000000000000076
:100780000000000000000000000000000000000069
:100790000000000000000000000000000000000059
:1007A0000000000000E0180601000000000000004A
:1007B0000000000080838340404040202121201021
:1007C00010101008080808040404040408304080CD
:1007D000800000018698600000000000000000001A
:1007E0000000000000000000000000000000000009
:1007F00000000000000000000000000000000000F9
:1008000000000000000000000000000000000000E8
:100810000000008080808040404040202020201048
:10082000101010080F080804040404020408101033
:100830002020404041422418000000000000000039
:1008400000000000000000000000000000000000A8
:100850000001010100000000000000000000000095
:100860000000000000000000000000000000000088
:100870000000000000000000000000000000000078
:100880000000000000000000000000000000000068
:100890000000000000000000000000000000000058
:1008A0000000000000000000000000000000000048
:1008B0000000000000000000000000000000000038
:1008C0000000000000000000000000000000000028
:1008D0000000000000000000000000000000000018
:1008E0000000000000000000000000000000000008
:1008F00000000000000000000000000000000000F8
:1009000000000000000000000000000000000000E7
:1009100000000000000000000000000000000000D7
:1009200000000000000000000000000000000000C7
:10093000008080404040201008040201020408109A
:100940002040808000000000000000000000000047
:100950000000000000000000000000000000000097
:100960000000000000000000000000000000000087
:100970000000000000000000000000000000000077
:100980000000000000000000000000000000000067
:100990000000000000000000000000000000000057
:1009A00000003FC10101020204040404020201012B
:1009B0000100000000000000000080000080000036
:1009C000606000000102040408081010202040802C
:1009D00080808040404040202020201010101008CF
:1009E00008080804040404020202020101010100D3
:1009F00000000000000000000000000000000000F7
:100A000000000000000000000000000000000000E6
:100A100000000000000000000000000000000000D6
:100A200000C0300C030000000000000000000000C7
:100A3000808686404040402122222011111010085B
:100A40000808080404040404083040808000000101
:100A50008698600000000000000000000000000018
:100A60000000000000000000000000000000000086
:100A70000000000000000000000000000000000076
:100A800000000000000000000000000000000080E6
:100A9000808080404040402020202010101010080E
:100AA0000F08080404040402040810102020404029
:100AB0004142241800000000000000000000000077
:100AC0000000000000000000000000000001010123
:100AD0000000000000000000000000000000000016
:100AE0000000000000000000000000000000000006
:100AF00000000000000000000000000000000000F6
:100B000000000000000000000000000000000000E5
:100B100000000000000000000000000000000000D5
:100B200000000000000000000000000000000000C5
:100B300000000000000000000000000000000000B5
:100B400000000000000000000000000000000000A5
:100B50000000000000000000000000000000000095
:100B60000000000000000000000000000000000085
:100B70000000000000000000000000000000000075
:100B80000000000000000000000000000000000065
:100B90000000000000000000000000000000000055
:100BA00000000000000000000000000000808080C5
:100BB000804040201008040204081020408080007B
:100BC0000000000000000000000000000000000025
:100BD0000000000000000000000000000000000015
:100BE0000000000000000000000000000000000005
:100BF00000000000000000000000000000000000F5
:100C000000000000000000000000000000000000E4
:100C100000000000000000000000000000007E82D4
:100C2000020204040808080804040201010000008C
:100C300000000000000080000080000060600001F3
:100C400001020404080810102020408080808040A9
:100C500040404020202020101010100808080804F0
:100C6000040404020202020101010100000000006C
:100C70000000000000000000000000000000000074
:100C80000000000000000000000000000000000064
:100C900000000000000000000000000000C0300C58
:100CA0000300000000000000000000008086864075
:100CB0004040402122222011111010080808080489
:100CC000040404040830408080000001869860001D
:100CD0000000000000000000000000000000000014
:100CE0000000000000000000000000000000000004
:100CF00000000000000000000000000000000000F4
:100D000000000000000000000000008080808040A3
:100D10004040402020202010101010080F08080428
:100D2000040404020408101020204040414224180A
:100D300000000000000000000000000000000000B3
:100D400000000000000000000001010100000000A0
:100D50000000000000000000000000000000000093
:100D60000000000000000000000000000000000083
:100D70000000000000000000000000000000000073
:100D80000000000000000000000000000000000063
:100D90000000000000000000000000000000000053
:100DA0000000000000000000000000000000000043
:100DB0000000000000000000000000000000000033
:100DC0000000000000000000000000000000000023
:100DD0000000000000000000000000000000000013
:100DE0000000000000000000000000000000000003
:100DF00000000000000000000000000000000000F3
:100E000000000000000000000000000000000000E2
:100E100000000000000000000000000000000000D2
:100E20000000000000000000008080808040402022
:100E30001008040204081020408080000000000018
:100E400000000000000000000000000000000000A2
:100E50000000000000000000000000000000000092
:100E60000000000000000000000000000000000082
:100E70000000000000000000000000000000000072
:100E80000000000000000000000000000000000062
:100E90000000000000000000001C34C4040404082A
:100EA0000808080804040201010000000000008096
:100EB0000000408080400000303000010102020448
:100EC000040408081020408080808040404040207A
:100ED0002020201010101008080808040404040240
:100EE00002020201010101000000000000000000F8
:100EF00000000000000000000000000000000000F2
:100F000000000000000000000000000000000000E1
:100F1000000000000000000000E0180601000000D2
:100F2000000000000000000080838340404040201B
:100F300021212010101010080808080404040404DB
:100F400008304080800000018698600000000000AA
:100F50000000000000000000000000000000000091
:100F60000000000000000000000000000000000081
:100F70000000000000000000000000000000000071
:100F80000000000000000080808080404040402041
:100F900020202010101010080F0808040404040278
:100FA0000408101020204040414224180000000096
:100FB0000000000000000000000000000000000031
:100FC000000000000001010100000000000000001E
:100FD0000000000000000000000000000000000011
:100FE0000000000000000000000000000000000001
:100FF00000000000000000000000000000000000F1
:1010000000000000000000000000000000000000E0
:1010100000000000000000000000000000000000D0
:1010200000000000000000000000000000000000C0
:1010300000000000000000000000000000000000B0
:1010400000000000000000000000000000000000A0
:101050000000000000000000000000000000000090
:101060000000000000000000000000000000000080
:101070000000000000000000000000000000000070
:101080000000000000000000000000000000000060
:101090000000000000000000000000000000000050
:1010A00000008080404040202020202018040201C1
:1010B0000204081020204040808000000000000052
:1010C0000000000000000000000000000000000020
:1010D0000000000000000000000000000000000010
:1010E0000000000000000000000000000000000000
:1010F00000000000000000000000000000000000F0
:1011000000000000000000000000000000000000DF
:1011100000000000060D31C10101010202020404B9
:10112000020201000000000000000080000040807A
:101130008040000030300000000001020404080874
:10114000102040808080804040404020202020109F
:101150001010100808080804040404020202020126
:10116000010101000000000000000000000000007C
:10117000000000000000000000000000000000006F
:10118000000000000000000000000000000000005F
:101190000000000000E01806010000000000000050
:1011A0000000000080838340404040202121201027
:1011B00010101008080808040404040408304080D3
:1011C0008000000186986000000000000000000020
:1011D000000000000000000000000000000000000F
:1011E00000000000000000000000000000000000FF
:1011F00000000000000000000000000000000000EF
:10120000000000808080804040404020202020104E
:10121000101010080F080804040404020408101039
:10122000202040404142241800000000000000003F
:1012300000000000000000000000000000000000AE
:10124000000101010000000000000000000000009B
:10125000000000000000000000000000000000008E
:10126000000000000000000000000000000000007E
:10127000000000000000000000000000000000006E
:10128000000000000000000000000000000000005E
:10129000000000000000000000000000000000004E
:1012A000000000000000000000000000000000003E
:1012B000000000000000000000000000000000002E
:1012C000000000000000000000000000000000001E
:1012D000000000000000000000000000000000000E
:1012E00000000000000000000000000000000000FE
:1012F00000000000000000000000000000000000EE
:101300000000007E0F00D4FFFFFFC7000000780040
:10131000000000000000002A2B2800000000000050
:101320000000000000000000000029000000002C68
:101330001E3420212224342627252E362D37382707
:101340001E1F202122232425263333362E37381F13
:101350000405060708090A0B0C0D0E0F10111213D5
:101360001415161718191A1B1C1D2F3130232D3573
:101370000405060708090A0B0C0D0E0F10111213B5
:101380001415161718191A1B1C1D2F3130354C0057
:10139000DA0281FFD9F1DB20A4A62EAF00A0C000A5
:1013A000A1C800AED580A81FD300408D1420003402
:1013B00000330032003100FD377A585A000004E64D
:1013C000D6B4460200210116000000742FE5A3E008
:1013D00001BE00F25D003D8889C65436C3174FE454
:1013E000DD8E057580C235A06D72E4E763E49998DF
:1013F0002806E2533185A35B558129060E1A2ECAB1
:101400001A744642A76C361F31F8EA924F1A4DC83B
:10141000EA56FCD8E239650AAE82034AFF2467BC6B
:10142000BA28980011F5F1A97E98A908F12D2DF799
:101430000094072A4F5130D7C70BEA7C1143B0AC58
:101440003A8D869B3F70FEB0F3AEFDC595913F523D
:10145000CDA9D7E22DFAE685044729B0629C5072E7
:10146000F116D1DFA97F5DFA917949F6B9F94D41BD
:10147000357B78E2B06FA43CB18643CC4DCBD291A2
:10148000B98B3DD68306F8BC2E90FDF8C857C69898
:10149000D2F231C8F23418376B97799CE015319C41
:1014A000C50CF2A60C00682693610C5AB097B7845D
:1014B00028064C0E3ED05964ECB8FE9CDDCDED12F2
:1014C0004CEAD2200E1E4F220000003AADACF72DA0
:1014D00025537900018E02BF030000801278DAB133
:1014E000C467FB020000000004595AA900AA00AC1E
:1014F00000AE00AB00AD00AF00A8003A003B003CDE
:10150000003D003E004B0000007C0000007D00001C
:10151000004E0001000100A5029117C31700000250
:10152000000200A1029117C317000003000100A6EA
:10153000029117C3170000040002008B029117C329
:1015400017271105000100A7029117C31700000615
:101550000002008D029117C317000007000200A3CC
:10156000029117C317000008000100A8029117C3D9
:1015700017000012000200A9029117C31700001300
:10158000000200AB029117C317000014000100AD68
:10159000029117C3170000150000000000AD108C69
:1015A0001F000000AF00AE09025B00030100A0FABB
:1015B00009040000010301010009211101000122B9
:1015C000400007058103080001090401000203002F
:1015D00000000921110100012222000705820320D9
:1015E00000010705030320000109040200010300B4
:1015F0000000092111010001226D0007058403206C
:1016000000011201000200000008646D7064010016
:10161000010203011C037600690061006C003A00BE
:10162000660036003400630032006200330063005D
:1016300000001003440061006D0061007000610053
:10164000640000002C0342006F006C007300610016
:1016500020004B006500790062006F00610072009D
:101660006400200053007500700070006C00790069
:1016700000000403090407087F0807003E5B4F5B76
:101680003E003E6B4F6B3E001C3E7C3E1C00183CF7
:101690007E3C18001C577D571C001C5E7F5E1C00A2
:1016A00000183C180000FFE7C3E7FF0000182418EB
:1016B0000000FFE7DBE7FF0030483A060E0026296E
:1016C00079292600407F05050700407F05253F005A
:1016D0005A3CE73C5A007F3E1C1C0800081C1C3E7C
:1016E0007F0014227F2214005F5F005F5F00060905
:1016F0007F017F00006689956A006060606060001D
:1017000094A2FFA2940008047E04080010207E200A
:10171000100008082A1C0800081C2A0808001E10CF
:10172000101010000C1E0C1E0C0030383E3830001B
:10173000060E3E0E060000000000000000005F00E4
:101740000000000700070000147F147F1400242A03
:101750007F2A120023130864620036495620500085
:10176000000807030000001C224100000041221C69
:1017700000002A1C7F1C2A0008083E080800008080
:1017800070300000080808080800000060600000D1
:101790002010080402003E5149453E0000427F40AF
:1017A00000007249494946002141494D330018144F
:1017B000127F10002745454539003C4A4949310010
:1017C000412111090700364949493600464949294E
:1017D0001E0000001400000000403400000000085B
:1017E000142241001414141414000041221408009F
:1017F0000201590906003E415D594E007C1211124A
:101800007C007F49494936003E41414122007F41E9
:1018100041413E007F49494941007F0909090100D2
:101820003E41415173007F0808087F0000417F411D
:1018300000002040413F01007F08142241007F400A
:10184000404040007F021C027F007F0408107F00A0
:101850003E4141413E007F09090906003E415121B8
:101860005E007F09192946002649494932000301D3
:101870007F0103003F4040403F001F2040201F00E9
:101880003F4038403F0063140814630003047804A9
:1018900003006159494D4300007F4141410002046A
:1018A00008102000004141417F00040201020400B1
:1018B0004040404040000003070800002054547896
:1018C00040007F28444438003844444428003844C9
:1018D00044287F0038545454180000087E09020040
:1018E00018A4A49C78007F080404780000447D407C
:1018F00000002040403D00007F10284400000041CF
:101900007F4000007C04780478007C0804047800A0
:10191000384444443800FC1824241800182424189F
:10192000FC007C08040408004854545424000404B7
:101930003F4424003C4040207C001C2040201C00F0
:101940003C4030403C004428102844004C9090908B
:101950007C004464544C4400000836410000000000
:101960007700000000413608000002010204020076
:101970003C2623263C00000000000000404040F0D0
:10198000F8F8FF38FFF8F83FF8F8FF38FFF8F8F0FC
:1019900040404000000000000080C0C0C080000047
:1019A000C0C08000000080C0C000C0C0000080C077
:1019B000C00000000000C0C0C0C0C000C0C0000027
:1019C0000000000000000000000000000000000017
:1019D0000000000000000000000000000000000007
:1019E00000000000000000000000000000000000F7
:1019F0000000000000C0F0F8FC3E1E0601000000E0
:101A00007F4141417F007F4141417F000080C0E034
:101A10007E5B4F5BFEC00000C000DCD7DEDEDED7A1
:101A2000DC00C0000000000000000000000000001A
:101A3000000000000000000000000000494949FFCC
:101A4000FFFFFFE0DFBFBF00BFBFDFE0FFFFFFFF23
:101A500049494900000000001F3F6060E0BF1F00CF
:101A60007F7F071E381E077F7F007F7F0E1F3B7121
:101A70006000000000007F7F0C0C0C007E7E007F69
:101A80007E0303007F7E03037E7E03037F7E000FC1
:101A90003E703C063C703E0F00327B49493F7E0061
:101AA0007F7E0303001E3F69696F2600000000006F
:101AB0000000000000030F1F3F3C78706000000032
:101AC0007F4141417F007F4141417F00307B7F78F2
:101AD00030202030787F3B0003000F7F0F0F0F7FF7
:101AE0000F000300000000000000000000000000E4
:101AF00000000000000000000000000001010107DC
:101B00000F0F7F0F7F0F0F7E0F0F7F0F7F0F0F07BE
:101B100001010100000000000000000000010100C0
:101B200000000000000000000000000000000000B5
:101B300000000000000000000000000000000000A5
:101B40000000000000000000000000000000000095
:101B50000000000000000000000000000000000085
:101B60000000000000000000000000000000000075
:101B70000000000000000000000000000000000065
:101B80000000000000000000000000000000000055
:101B90000000000000000000000000000000000045
:101BA0000000000000000000000000000000000035
:101BB00000000000000011241FBECFEFDAE0DEBFFE
:101BC000CDBF04B603FE18C08091FE049091FF04BF
:101BD000A0910005B09101058730904BA740B04B14
:101BE00059F41092FE041092FF0410920005109216
:101BF0000105E0E0F8E3099511E0A0E0B1E0E0EDD7
:101C0000FEE602C005900D92A038B107D9F724E096
:101C1000A0E8B1E001C01D92AE3FB207E1F70E941B
:101C2000692D0C9442370C940000CF93DF934091C0
:101C3000FC045091FD044C5F52409A0124583D4FE2
:101C400021303240C0F020E032E0241B350B60919F
:101C5000FA027091FB02FC01CA01240F351FC1E09A
:101C6000D0E08217930750F07093FB026093FA0262
:101C7000DF91CF9108952CE732E0E9CF4491DC0168
:101C8000A450BD4F5C91451781F04C93AC01A5E089
:101C900056954795AA95E1F7DE0102C0AA0FBB1F32
:101CA0004A95E2F7AD016A2B752B01963196D9CF93
:101CB000E8EDF0E080818E7F80831092E200109248
:101CC000DA001092E100A0EEB0E08C9181608C937C
:101CD00080818F77808319BCA7EDB0E08C918E7FD7
:101CE0008C9380818F7E80831092C2020895209110
:101CF000E4003091E50095E6A9012091EC00822FE7
:101D0000817020FF06C08091E80080FF06C080E05F
:101D100008952091E80022FD1AC08091F0028823E6
:101D200089F0853089F08091EB0085FD0FC020910E
:101D3000E4003091E50042175307F9F29150E1F6C3
:101D400084E0089582E0089583E0089581E0089595
:101D5000EF92FF920F931F93CF937C018B010E9410
:101D6000770EC82F811117C08091E80085FD0BC048
:101D70008091E8008E778093E8000E94770E882398
:101D800099F3C82F08C0F70181917F018093F1007A
:101D90000150110949F78C2FCF911F910F91FF909E
:101DA000EF900895CF93FC018091F002843001F50B
:101DB000C091E900CF702091EC00922F917020FD2E
:101DC00090E8C92B82E08093E9008091E80080FFD1
:101DD0000CC050E040E060E270E0CF010E94A80E2D
:101DE0008091E8008E778093E800CF70C093E9007F
:101DF000CF9108958091E80287FF13C08091E80099
:101E000082FF06C08091E8008B778093E80004C0D1
:101E10008091F0028111F2CF08958091F002882321
:101E2000D9F38091E80080FFF8CF8091E8008E77A9
:101E3000ECCF982F9093E900242F762F50E089174C
:101E400031F07091EC002091ED005091F00021FDF7
:101E500007C09F5F973071F78093E90081E0089594
:101E60003091EB003E7F3093EB003091ED003D7FF1
:101E70003093ED003091EB0031603093EB007093C4
:101E8000EC002093ED005093F0002091EE0027FD30
:101E9000E0CF80E00895B0E0A0E0E1E5FFE00C9441
:101EA0008036C8EDD0E088818F7E8883E7EDF0E052
:101EB00080818160808384E082BF81E08093C20260
:101EC00088818E7F888302EE10E0F80110821092E4
:101ED000DA0081EEC82ED12CF601108288818F772E
:101EE000888388818068888388818F7D888319BCF6
:101EF0001092F0021092E7021092E6021092E502B0
:101F000090EEE92EF12CF70180818B7F8083888110
:101F10008160888342E060E080E00E94190FF60152
:101F200080818E7F8083F8018081816080838081C1
:101F300088608083F70180818E7F808388818061C3
:101F40008883CDB7DEB7E8E00C949C36FC01809125
:101F5000EE029091EF0286179707A0F061157105C8
:101F600029F49091E8009E779093E80090E0611545
:101F7000710551F4911108C08091E80082FF34C0CE
:101F800080E00895BC01F2CF8091F0028823C1F176
:101F90008530C1F18091E80083FD30C08091E80078
:101FA00082FDEACF8091E80080FFE1CF8091F300CD
:101FB0002091F200382F6115710519F02830310594
:101FC00058F091E02830310509F090E02091E800C8
:101FD0002E772093E800CBCF81918093F100615060
:101FE00071092F5F3F4FE7CF8091F002882341F0C6
:101FF000853041F08091E80083FFBECF81E00895F5
:1020000082E0089583E00895089508958091C402C0
:1020100008952FB7F8946091B9027091BA02809137
:10202000BB029091BC022FBF08952091160122237C
:10203000C9F02091BD0227FF15C0E62FE695E69571
:10204000E695EE31D8F4E80FF92FF11D677021E025
:1020500030E001C0220F6A95EAF72095828128239B
:1020600022830895FC01329608962191621303C0E1
:10207000DF0111971C92E817F907B9F7089520912D
:1020800016012223C1F02091BD0227FF14C0E62FC4
:10209000E695E695E695EE31F8F4E80FF92FF11D97
:1020A000677021E030E001C0220F6A95EAF7828173
:1020B000822B82830895FC0132962FEF30E041910C
:1020C000641751F02F3F19F4411101C0232F3F5FD6
:1020D0003630A9F72F3F09F40895820F911D27FD8F
:1020E0009A95FC01628308952091B6023091B7025F
:1020F0002817390771F09093B7028093B602E091E8
:10210000B402F091B502309721F00084F185E02D02
:10211000099508952091B2023091B302281739072A
:1021200071F09093B3028093B202E091B402F09107
:10213000B502309721F00680F781E02D09950895CA
:10214000E091B402F091B502309729F00190F0814E
:10215000E02D0995089580E00895B0E0A0E0E3EB5C
:10216000F0E10C947E368FEF9FEF4430510508F478
:1021700069C04091BD0241FB882780F990E0880F3B
:10218000991F42FB002700F910E0000F111F000FFC
:10219000111F802B912B40FBCC24C0F8D12C8C2913
:1021A0009D2943FB222720F9C22FE0E0DE2F53E0D8
:1021B000CC0FDD1F5A95E1F78C2B9D2B44FBAA27F2
:1021C000A0F9B0E0E4E0AA0FBB1FEA95E1F78A2B83
:1021D0009B2B45FBEE27E0F9F0E0A5E0EE0FFF1F9B
:1021E000AA95E1F78E2B9F2B46FB222720F930E0A2
:1021F000B6E0220F331FBA95E1F7822B932B47FBF2
:10220000222720F930E03695322F2227379527955F
:10221000822B932B2091BE02322F3170F32EE82EA9
:10222000F92A26952170B22EBB0CA82EBF28C50115
:10223000BB0CAA0BBB0BFB0180839183A283B383EE
:1022400090E080E0CDB7DEB7EAE00C949A3680915A
:102250008B0290918C029093140180931301089546
:1022600080E00895F894E82FE295EF70F0E031A156
:10227000282F2F7081E090E001C0880F2A95EAF79F
:10228000982F9095932391A392A1892B82A3789460
:1022900008959091BD0292FF06C0282F2871283022
:1022A000F9F4877F846093FF06C0282F28712831B6
:1022B000F1F4877E84612091BE0220FF06C0382F92
:1022C00038713830D9F4877F816021FF06C0282F0C
:1022D00028712831D1F4877E816194FD877E08952D
:1022E000282F24712430F9F68B7F8860DCCF282FCB
:1022F0002471243101F78B7E8861DDCF382F317155
:10230000313019F78E7F8860E0CF282F217121317D
:1023100021F78E7E8861E1CFCF93DF93EC01823885
:102320009105A9F1D8F58133910509F496C048F5D6
:102330008932910509F48AC08A9709F495C0C115BC
:1023400022E5D20708F0B6C0C11531E5D30708F081
:1023500026C1C83ED10508F09CC0C03ED10560F53D
:10236000C83AD10508F087C0C53AD10508F0EFC0DA
:10237000C130D10509F12097F9F0C430D105E0F45E
:1023800040C08533910509F45AC0C997C1F68091C0
:10239000BD02837089F0C0EED0E00EC0833E91058F
:1023A00099F170F4803E910501F1823E910539F674
:1023B0008091BD0282FD21C0CE01DF91CF910895B1
:1023C000863E910561F1873E910571F1843E91054C
:1023D00009F0B5CF8091BE0281FFEECF8091BD02A2
:1023E000C7EED0E084FD0DC0E7CF8091BD0280FD37
:1023F00007C19091BE0290FFDFCFC3EED0E084FF13
:10240000DBCFD0E0C0E0D8CF8091BD0282FDFBC021
:102410009091BE0290FDBFCF84FFCECFF2CF8091CE
:10242000BD0283FDDDCFC8CF8091BD0283FDEEC02C
:102430009091BE0291FFF0CFC4EED0E0BDCF80916D
:10244000BD0285FFB9CFC9E2D0E0B6CF8091BD0211
:1024500085FFB2CFC5E3D0E0AFCF8091BD0286FF4C
:10246000ABCFCAE2D0E0A8CF8091BD0286FFA4CF57
:10247000C1E3D0E0A1CFCF3BD10518F6C85AD0E0D8
:10248000CC0FDD1FCE5DDE4F0990D881C02DD46406
:1024900093CFC11540E5D40708F064C0C11580E4AE
:1024A000D80708F05CC0CE019A9581159F4108F4C9
:1024B00083CFA7CFC11536E5D30718F5C11545E57C
:1024C000D40708F084C0C11584E5D80708F07AC0A5
:1024D0009C2F969596959E0123703327C115D34561
:1024E00008F462C0C1E0D0E002C0CC0FDD1F2A9525
:1024F000E2F730E2939FC0011124C82BD92BDA6890
:102500005BCFC1158AE5D80778F4C11599E5D907DD
:1025100008F068C0C11528E5D20708F472CFDC2F97
:10252000CC27C06FD06A48CFCE019056811590421B
:1025300008F067CF8D2F8F710E94491190E0982F7E
:10254000882788279F719C012C2BE90149C0C55A17
:10255000D0E0C15EDE4FC881D0E0D0642DCFDF7007
:10256000D06A2ACFCE01E4E096958795EA95E1F707
:1025700083702C2F26952695237040E2249F90018E
:102580001124382B8C2F8370C1E0D0E002C0CC0F17
:10259000DD1F8A95E2F7C22BD32BDC680DCFDC2F31
:1025A000CC27C16FD06A08CFC1E0D0E002C0CC0F09
:1025B000DD1F2A95E2F720E2929FC0011124C82B6B
:1025C000D92BEBCFDC2FCC27C46FD06AF5CE8C2F64
:1025D0000E944911C82FD0E0DC2FCC27CC27DF7117
:1025E000D062EACE8C2F8F700E94491134E0D695CC
:1025F000C7953A95E1F7CF709C2FEC01D069DCCEFE
:10260000C9E3D0E0D9CEC2EED0E0D6CEC6EED0E05F
:10261000D3CE80911102882331F0109211021092D2
:10262000100210920F0208958095909166029823EF
:102630009093660208951092EE011092ED011092AF
:10264000EC0108952091EB019091BA0156E0291315
:1026500002C080E0089530E0529FF001539FF00DDA
:102660001124E554FE4F7181761306C070817813F2
:1026700003C07281741304C02F5F3F4F2770E7CFF0
:1026800081E00895452B39F0682381E06F3F09F020
:1026900080E08170089581E0FCCF8091EB01909102
:1026A000BA01981301C008958F5F8770FACFA82FE1
:1026B000A77023E0969587952A95E1F7FC01EE0F28
:1026C000FF1FE80FF91FE60FF71F50E040E080E022
:1026D000219130E00A2E02C0369527950A94E2F740
:1026E00021703327042E01C0220F0A94EAF7822BAF
:1026F0004F5F5F4F4330510559F70895903FC9F040
:10270000933080F48630A8F4282F30E06BEA71E033
:10271000A901E6E09E9F400D511D1124CA010E94AF
:10272000571308959C5F923020F468EA71E090E0BE
:10273000F6CF80E00895262F277091E001C0990F11
:102740002A95EAF723E0769567952A95E1F7FB014C
:10275000EE0FFF1FE60FF71FE40FF51F50E040E0FC
:10276000682F70E08191DF0111979B01042E02C058
:10277000369527950A94E2F7217021952827292379
:1027800028272C934F5F5F4F4330510559F7089529
:10279000282F862F903F79F0933070F4263058F42C
:1027A000622F70E026E0929F600D711D11244BEAAC
:1027B00051E00E949B1308959C5F9230E0F7622FD6
:1027C00070E048EA51E0F5CF92959F70963091F015
:1027D00058F4925F9F70923058F4803F19F030F4B3
:1027E000883E30F481E008959A5FF4CF843FD1F3BE
:1027F00080E00895883EB0F3813FD1F7F3CF982F62
:1028000092959F7011F0892F94E0282F2695269598
:1028100011F09E5F822F869509F09F5F892F0895A2
:102820009C013A9521153F4150F5FC01EE27F170CE
:10283000BC0166277270AC01442754709C012227AA
:10284000387094FF0EC080E1EF2B09F480E0672B15
:1028500009F08062452B09F08064232B89F08068A1
:10286000089581E0EF2B09F480E0672B09F0826086
:10287000452B09F08460232B19F08860089580E0CF
:10288000089580912E0281111CC08091A30190E0D7
:10289000019665E070E00E94B9368093A30124E0C0
:1028A00030E0281B390B4CE752E0249FC001259FE4
:1028B000900D349F900D11248D58994F0E94150E44
:1028C00008958091A20190E00196817099278093EC
:1028D000A20121E030E0281B390B4CE752E0249F95
:1028E000C001259F900D349F900D112485589E4F57
:1028F0000E94150E10922E020895B0E0A0E0E3E8C9
:10290000F4E10C9480366C017B0164E670E088E7AA
:102910000E947935EC0197FD12C010E000E0F6014D
:10292000E00FF11F849164E670E00E94E735EC014E
:10293000892B29F40F5F1F4F0E151F0581F70E9489
:102940005E36CE01CDB7DEB7E8E00C949C368091C0
:10295000640290916502911103C091E08927089566
:10296000882369F062E070E085EA95E10E947D14B9
:10297000892B19F08091640208951092640280916D
:102980006402EBCFCF93C0916402809165028823EB
:10299000D1F00E940910605A75418F4F9F4F60938C
:1029A0006002709361028093620290936302C1118E
:1029B00008C062E070E083EA95E10E947D14892BF3
:1029C00029F0C09164028C2FCF91089581E080930B
:1029D0006402F7CFCF93DF93C091FC04D091FD0444
:1029E0008A30C1F42091F302CE018C5F9240622FB5
:1029F00070E00E946236281B822F66E00E94AD368E
:102A0000C82FC15018F4DF91CF91089580E20E9441
:102A1000EA14F7CF8D30E9F4CC5FD2402091F30275
:102A2000622F70E0CE010E946236281B822F9E0129
:102A3000280F311D2115324018F080E0D0E0C0E0B1
:102A4000C80FD11DC450DD4FD093FD04C093FC04CA
:102A5000DACF96E0FE01A4EFB2E001900D929A95D4
:102A6000E1F7803E08F458C086E0FE0111928A9595
:102A7000E9F7C091FC04D091FD0446E050E0BE01AE
:102A800084EF92E00E94E3369E012C5F3240892B56
:102A900041F1C90145E0969587954A95E1F741E0F6
:102AA00050E0BA0102C0660F771F8A95E2F7CB01AA
:102AB0006091FA027091FB02862B972BB9016B5F34
:102AC0007F4FE5E076956795EA95E1F702C0440F00
:102AD000551F6A95E2F7842B952B9093FB02809308
:102AE000FA022A5F3F4F4091F302642F70E0C90160
:102AF0000E946236481B463010F4240F311D211508
:102B000072E0370710F030E020E024503D4F309362
:102B1000FD042093FC0477CFF6E08F9FB0011124D1
:102B20006A58794E46E050E0CE010E94DA36A1CFD5
:102B3000CF93DF93EC01FE018491811103C0DF91FB
:102B4000CF9108950E94EA142196F5CF8093BF0299
:102B50007093C1026093C0028091F0028430F9F456
:102B60008093E9008FEF9091E800815095FD06C0B9
:102B700095ED9A95F1F700008111F5CF8091E8006D
:102B800085FF0DC050E040E063E070E08FEB92E025
:102B90000E94A80E8091E8008E778093E800089547
:102BA000BC0184E00E94A6150895BC0183E00E9448
:102BB000A6150895CF93DF93EC0180911601882329
:102BC000B1F18091BD0287FF32C060E284E0809362
:102BD000E9008FEF9091E800815095FD06C095EDDA
:102BE0009A95F1F700008111F5CF8091E80085FFFB
:102BF0001BC08091160170E050E040E0811104C0DC
:102C000050E040E068E070E0CE010E94A80E8091A4
:102C1000E8008E778093E80080E2FE01A5ECB2E048
:102C200001900D928A95E1F7DF91CF91089568E0C8
:102C300081E0CDCF81E08093E00080E28093D800F6
:102C40001092C9008FE19EE40197F1F700C00000E7
:102C500087E090EBDC018093FE049093FF04A09347
:102C60000005B093010588E19CE00FB6F894A895A3
:102C7000809360000FBE90936000FFCF019708F42F
:102C80000895EFE9FFE03197F1F700C00000F6CFBB
:102C90000F931F93CF93DF930BE812E0C7ECD0E0C4
:102CA000CE010E940037F80181938F012196CB3E1F
:102CB000D105B1F7CDE1D5E1FE0185919491009761
:102CC00011F0FC0109952C96F5E1CD3ADF07A1F74B
:102CD000DF91CF911F910F910895FF920F931F9352
:102CE000CF93DF93F42E843040F5611126C024E0A9
:102CF000829F8001112409541F4F82E090E04423F9
:102D000011F090E080E0800F911F0E940037C82FE3
:102D1000D0E0DC2FCC2783E090E0FF2011F081E0B1
:102D200090E0800F911F0E9400379E01282BC9015F
:102D3000CDB7DEB7E5E00C949F3690E080E0F8CFA9
:102D40000F931F93CF93DF93843030F5633020F5DA
:102D5000463010F5C42FD0E0CC0FDD1F2CE0629F71
:102D6000C00DD11D112434E2839FC00DD11D11244B
:102D7000CE0187960E940037082F10E0102F002701
:102D8000CE0188960E9400379801282BC901DF9157
:102D9000CF911F910F91089590E080E0F8CF462FDA
:102DA000672F20915E0230915F02232BF9F4703F70
:102DB00039F4403FD9F480915C0290915D0208950E
:102DC0008430A0F4733028F4463080F40E94A016BA
:102DD00008957D3F39F4411109C041E060E00E944F
:102DE0006D1608957C3F11F44423C1F390E080E018
:102DF0000895CF92DF92FF920F931F93CF93DF93AB
:102E00006C010091F20280912F02082BC7E0D0E004
:102E100010E0FC2EC8010C2E02C0959587950A94EF
:102E2000E2F780FD0CC02197A0F7F12C8F2DDF91E8
:102E3000CF911F910F91FF90DF90CF900895B60131
:102E40008C2F0E94CF160E948C11019761F3EECF58
:102E5000CF93DF93EC010E94F916BE010E94CF16BA
:102E60000E948C11DF91CF910895FC0180819181A6
:102E70000E9428170E94E4130895A5E0B0E0E3E45F
:102E8000F7E10C94853649835A8389819A816623B8
:102E900099F0222389F00E94F916182F682F898152
:102EA0009A810E94C81369817A81812F0E94CF166E
:102EB0002596E3E00C94A1360E947E13182FF3CFE1
:102EC000FC01262F408151816281738184810E949F
:102ED0003D17089583E290E00E940037893E89F40F
:102EE00084E290E00E9400378A3359F485E290E052
:102EF0000E94003791E0813C09F090E0892F8170B9
:102F0000089580E0FCCFCF9384E090E00E940037EA
:102F1000C82F82E290E00E940037982F8C2FCF912B
:102F20000895DB01FC013296259134914217530735
:102F300058F0FC01349665917491A901CD010E946D
:102F4000F03690E080E008958FEF9FEF08950F93A3
:102F50001F93CF93DF930BE812E0C7ECD0E0CE01D4
:102F60000E940037F80161918F01681719F0CE01B6
:102F70000E940E372196CB3ED10589F7DF91CF9184
:102F80001F910F910895DA019C012E5F3F4FF901C7
:102F900045915491F90125913491A217B30758F046
:102FA000FC013496859194910E94F0360E94A717F7
:102FB00090E080E008958FEF9FEF0895CF93DF9327
:102FC000CBEED0E060E0CE010E940E372196C11515
:102FD00084E0D807B9F7DF91CF9108950F931F933D
:102FE000CF93DF93142F022F8430F0F461111CC0B3
:102FF00094E0899FE0011124C954DF4F82E090E002
:10300000442311F090E080E0632F8C0F9D1F0E94FD
:103010000E3783E090E0112311F081E090E0602F03
:103020008C0F9D1F0E940E37DF91CF911F910F9142
:1030300008951F93CF93DF93122F8430E0F4633011
:10304000D0F44630C0F4C42FD0E0CC0FDD1F9CE09C
:10305000699FC00DD11D112494E2899FC00DD11D1F
:103060001124632FCE0187960E940E37612FCE0167
:1030700088960E940E37DF91CF911F910895CF93CC
:10308000C82F6FEF811169EE83E290E00E940E3746
:103090006FEFC1116AE384E290E00E940E376FEF98
:1030A000C11161EC85E290E00E940E37CF91089546
:1030B000CF93C92F682F84E090E00E940E376C2FC9
:1030C00082E290E00E940E37CF9108951F920F92F6
:1030D0000FB60F9211242F933F934F935F936F93EB
:1030E0007F938F939F93AF93BF93EF93FF938091C1
:1030F000E10082FF09C08091E20082FF05C080915B
:10310000E1008B7F8093E1008091DA0080FF24C092
:103110008091D80080FF20C08091DA008E7F80935C
:10312000DA008091D90080FF9DC080E189BD82E1F5
:1031300089BD09B400FEFDCF81E08093F00280914B
:10314000C202811109C00E94580E0E944B0F80914B
:10315000E20084608093E2008091E10080FF17C06C
:103160008091E20080FF13C08091E2008E7F809307
:10317000E2008091E20080618093E2008091D800BB
:1031800080628093D80019BC85E08093F002809122
:10319000E10084FF2BC08091E20084FF27C080E122
:1031A00089BD82E189BD89B5982F917080FFFBCFE1
:1031B0008091D8008F7D8093D8008091E1008F7E30
:1031C0008093E1008091E2008F7E8093E200809105
:1031D000E20081608093E2008091E702882309F495
:1031E00047C084E08093F0028091F0028091E1007A
:1031F00083FF27C08091E20083FF23C08091E1001C
:10320000877F8093E10082E08093F0021092E702D2
:103210008091E1008E7F8093E1008091E2008E7FBB
:103220008093E2008091E20080618093E20042E0BE
:1032300060E080E00E94190F8091F0008860809328
:10324000F000FF91EF91BF91AF919F918F917F918E
:103250006F915F914F913F912F910F900FBE0F9003
:103260001F90189519BC1092F0021092C20274CFF0
:103270008091E30087FD93E09093F002B5CF7894BE
:103280001F921FB61F9211248F939F93AF93BF93EA
:103290008091B9029091BA02A091BB02B091BC0298
:1032A0000196A11DB11D8093B9029093BA02A0931B
:1032B000BB02B093BC02BF91AF919F918F911F90C1
:1032C0001FBE1F9018959C014FB7F8948091B902CA
:1032D0009091BA02A091BB02B091BC024FBF821B79
:1032E000930B08952FB7F8948091B9029091BA0288
:1032F000A091BB02B091BC022FBF0895A3E0B0E043
:10330000E4E8F9E10C947D3619821A821B8280E58B
:10331000E82E81E0F82E10E000E0CC24C394D12CFC
:1033200029E5A22E21E0B22EF70181917F018F3F86
:1033300009F445C0F894E82FE295EF70F0E021A180
:103340008F70A60102C0440F551F8A95E2F7CA018B
:10335000922F982B91A392A18095892382A3789490
:1033600000C0E3E5F1E0912C31E021912F3F09F419
:1033700064C0A22FA295AF70B0E090968C9190E0BF
:103380002F7002C0959587952A95E2F780FD55C06C
:10339000832F982A330FAE16BF0639F7F7013197FE
:1033A00080818F3F11F00E94321150EA5A95F1F757
:1033B000E1E0F0E0EC0FFD1FE00FF11F90820F5FE6
:1033C0001F4F0330110509F0AFCF43E050E0BE01BD
:1033D0006F5F7F4F85E192E00E94E33611E0009736
:1033E00009F410E0892B59F189819A81AB8180938E
:1033F000150290931602A093170281E080931402A5
:103400000E9472199093130280931202809112020B
:10341000909113020E9463190597A8F080911502FC
:103420008093570280911602809358028091170270
:10343000809359021092140206C080E0AACF8091B6
:1034400014028111E3CF812F2396EBE00C9499367F
:10345000CF93C82F8091BE0282FF0CC080911102D1
:103460008C1741F00E9472199093100280930F0202
:10347000C0931102CF91089580918D0290918E0298
:10348000892B89F00E94721920910F02309110024D
:10349000AC01421B530B81E020918D0230918E02D2
:1034A0004217530708F480E0817008958091660206
:1034B0009091F102892B80938201809111028823DF
:1034C00019F180918D0290918E02892B29F00E9432
:1034D0003C1A81110E94091380918201909111027E
:1034E000892B80938201809116018823E1F18091DC
:1034F000BD0287FF38C08EE1E4E8F1E090E0815042
:10350000A0F591110E94091340E250E06FEE71E0C6
:1035100082E891E00E94E336892B21F180E2E2E823
:10352000F1E0AFEEB1E001900D928A95E1F7E09104
:10353000B402F091B5023097A9F08091160188236A
:1035400059F08091BD0287FF07C08091820180936E
:10355000830186E0809382010280F381E02D82E87E
:1035600091E00995089586E0C7CF2191222339F291
:103570009F5FC5CF80911501877F80931501909142
:10358000F1029D7F9093F10284FF08C08F7E8093AB
:103590001501809166028260809366028091150118
:1035A00085FF08C08F7D809315018091660280623F
:1035B000809366020E94561A089590E080E00E946F
:1035C0008A1090E080E00E9474101092F1020E9434
:1035D000561A08958093F2020E94DD1A0895809190
:1035E000F202982F9670963021F488600E94EA1AB1
:1035F0000895877FFBCF21E030E001C0220F8A953C
:10360000EAF720958091F20282230E94EA1A089537
:103610009091EE01809589238093EE01282F2770E9
:1036200091F4282F082E000C330B9217130659F033
:103630009091BE0292FF07C08595859585950E9461
:10364000FB1A0E941B1308959091BE0292FB222741
:1036500020F9281769F080FB92F99093BE028091BF
:10366000BD029091BE020E94581882E00E94081B81
:10367000089521E030E001C0220F8A95EAF7809199
:10368000F202822B0E94EA1A08959091BE0292FFE4
:1036900010C098E0899F90011124622B6093EE0185
:1036A0000E94391B0E9472199093ED018093EC01E6
:1036B00008950E94391B089580932F020E94DD1AFD
:1036C00008951092660280911601E4E8F1E08823E3
:1036D00061F08091BD0287FF08C08EE1DF011D927D
:1036E0008A95E9F70E94DD1A089586E0F7CFAAE2ED
:1036F000B0E0EDE7FBE10C94853688EE92E0209196
:10370000F100DC012D93CD01B2E0803F9B07B9F7BA
:103710008091E902833009F472C0B8F4813009F471
:1037200049C0823009F4B3C08091E80083FF96C29B
:103730008091E8029091E9029A3008F08FC2E92F57
:10374000F0E0EC5BF84C0C94CD368A3009F48EC076
:103750008B3009F471C0893039F78091E8028132E9
:1037600019F78091EC029091ED02009711F0029709
:10377000D9F68091E800877F8093E8008091E80087
:1037800082FF38C09091F3008091F200029731F4EB
:103790008091F100813011F0863021F48091F100A8
:1037A0008093C4028091E8008B778093E8000E94A8
:1037B000FA0EBACF8091E802813A09F0B5CF809134
:1037C000E800877F8093E8008091EC029091ED0201
:1037D000892B61F460E285EC92E070E00E94A60F14
:1037E0008091E8008B778093E8009ECF60E090E0C6
:1037F00080E0F3CF8091F0028111C0CF95CF80910E
:10380000E802813A09F090CF8091EC029091ED02AC
:10381000892B09F089CF8091E800877F8093E800A9
:103820008091E80080FFFCCF809116018093F10029
:103830008091E8008E77B9CF8091E802813209F05B
:1038400073CF8091EC029091ED02892B09F06CCF3F
:103850008091E800877F8093E8000E94FA0E8091B3
:10386000EA02809316010E94611B5ECF8091E802FC
:10387000813209F059CF8091E800877F8093E8007A
:103880000E94FA0E8091EB028093C3024DCF80918B
:10389000E802813A09F048CF8091E800877F809361
:1038A000E8008091E80080FFFCCF8091C302BECF8A
:1038B000803899F0823809F0D1C18091EC028F7084
:1038C000873008F0CBC18093E9008091EB0085FB45
:1038D000882780F91092E90006C08091E502909156
:1038E000E602911182609091E800977F9093E80042
:1038F0008093F1001092F1008091E8008E77AAC1C8
:10390000882309F498C1823009F0A8C18091EA02A5
:1039100081119BC18091EC028F702FEF280F263010
:1039200008F09CC18093E9002091EB0020FF8DC13D
:10393000933031F48091EB0080628093EB0085C17D
:103940009091EB0090619093EB0021E030E001C09A
:10395000220F8A95EAF72093EA001092EA008091FC
:10396000EB008860EACF811179C11091EA021F77DC
:103970008091E3008078812B8093E3008091E800C0
:10398000877F8093E8000E94FA0E8091E80080FF14
:10399000FCCF8091E30080688093E30082E0111106
:1039A00083E08093F0025AC18058823008F056C1FB
:1039B0002091EA023091EB022C3DE3E03E07A1F5B5
:1039C00083E08A838AE289834FB7F894DE011396F5
:1039D00020E03EE051E2E32FF0E050935700E49105
:1039E00020FF03C0E295EF703F5FEF708E2F90E0F5
:1039F000EA30C0F0C7968D939D932F5F243159F71D
:103A00004FBF8091E800877F8093E8006AE270E012
:103A1000CE0101960E94A60F8091E8008B778093DB
:103A2000E8001CC1C096E7CF8091EC029091ED02B6
:103A3000432F55274330510509F44AC078F54130EA
:103A4000510509F485C08BE590E0E7EAF5E14230E5
:103A5000510509F003C12091E800277F2093E80079
:103A60002091EE023091EF028217930708F49C0137
:103A700040E02115310509F070C041116EC0809100
:103A8000E80082FDC9CF8091F002882329F28530B9
:103A900019F28091E80083FFF2CFBECF4132510589
:103AA00009F447C04232510509F0D8C0833091056E
:103AB00008F0D4C0FC01EE0FFF1FEC58FE4F019040
:103AC000F081E02D8F589E4FDC018C9190E01DC05D
:103AD000332721303105E9F02115310579F0223005
:103AE0003105F9F02330310509F0B8C0E4E1F6E121
:103AF000E4918E2F90E0E4E1F6E107C0E2E7F6E121
:103B0000E4918E2F90E0E2E7F6E1009709F4A6C079
:103B1000A2CFE4E4F6E1E4918E2F90E0E4E4F6E154
:103B2000F4CFE2E3F6E1E4918E2F90E0E2E3F6E1F8
:103B3000ECCF8330910508F091C0880F991FFC01EC
:103B4000E658FE4F0190F081E02D89E090E083CFB0
:103B500082E190E0E2E0F6E17ECF8091F0028823FE
:103B600009F45ACF853009F457CF8091E80083FDDE
:103B700053CF8091E80082FD82CF8091E80080FFE2
:103B800078CF9091F3008091F2002115310519F062
:103B90008830910550F041E0089709F040E08091AD
:103BA000E8008E778093E80064CF44914093F10061
:103BB0003196215031090196E8CF803809F04EC086
:103BC0008091E800877F8093E8008091E7028093EE
:103BD000F10092CE811142C01091EA021230F0F54C
:103BE0008091E800877F8093E8001093E7020E94AD
:103BF000FA0E112311F084E005C08091E30087FDE7
:103C0000FACF81E08093F00242E061EC81E00E9413
:103C1000190F42E261EC84E00E94190F42E261EC6C
:103C200082E00E94190F42E260EC83E00E94190FCB
:103C30008091F00213C08091EA02813079F481E032
:103C4000933009F080E08093E6021092E9008091C1
:103C5000E800877F8093E8000E94FA0E8091E800D8
:103C600083FF0AC08091E800877F8093E8008091FD
:103C7000EB0080628093EB00AA96E3E00C94A136FF
:103C80001F920F920FB60F9211242F933F934F93D1
:103C90005F936F937F938F939F93AF93BF93CF93D4
:103CA000DF93EF93FF93D091E900DF708091EC00F8
:103CB000C82FC17080FDC0E81092E9008091F0002B
:103CC000877F8093F00078940E94771B1092E90020
:103CD0008091F00088608093F000CD2BCF70C0936E
:103CE000E900FF91EF91DF91CF91BF91AF919F914B
:103CF0008F917F916F915F914F913F912F910F9095
:103D00000FBE0F901F901895EBE8F2E0128E138E05
:103D10008FEA90E09183808385E0848F28E833E107
:103D20003383228322E330E0378B268B28EC30E08C
:103D3000318F208F158E2AE030E0378F268F20E5D7
:103D400030E031A320A382A30E94A7170E94611B29
:103D50001092BE021092BD02EEEBF2E08081846010
:103D600080838091BD029091BE020E9458180E94EB
:103D700048160895B0E0A0E0E0ECFEE10C947B363C
:103D8000C0905A02D0905B0281E090E090935B0279
:103D900080935A020BEE14E18FEEE82E84E1F82EA8
:103DA000C0E05701D0E015C0F40125913491472DB2
:103DB0006D2F8C2F0E94191882E0880E911C73942D
:103DC00086E07812F1CF8CE0A80EB11CDF5FD33013
:103DD00019F04501712CE8CFF8012591349141E0AB
:103DE00060E08C2F0E94EE17F801329625913491F5
:103DF00040E060E08C2F0E94EE170C5F1F4FCF5FFA
:103E000084E2E80EF11CC43009F0CBCF0E94841E7E
:103E1000D0925B02C0925A02CDB7DEB7EDE00C94AF
:103E2000973680E00E943F1860E086E290E00E94B2
:103E30000E370E94BA1E0E94DE1781E00E943F18D2
:103E4000089568EE7EEF90E080E00E942C3760E0FD
:103E500082E090E00E940E3760E083E090E00E94F4
:103E60000E3710922F0260E084E090E00E940E373F
:103E700064E082E290E00E940E3760E085E090E02E
:103E80000E940E3760E086E090E00E940E376FEFF0
:103E900087E090E00E940E3740E050E0BA0188E0F1
:103EA00090E00E94203760E08DE090E00E940E37A5
:103EB00040E050E0BA0188E190E00E94203760E0E5
:103EC00087E190E00E940E3740E050E0BA018CE1BB
:103ED00090E00E94203770E060E080E290E00E9475
:103EE0002C3740E050E0BA0188E190E00E94203792
:103EF00080E00E943F180E94111F40E050E0BA018C
:103F00008FE090E00E94203740E050E0BA0183E16A
:103F100090E00E9420370895CF92DF92EF92FF92B7
:103F20008FEF9FEF4430510508F46AC0FB01C08059
:103F3000D180E280F3800E94611B8091BD02C0FAB3
:103F400080F9B701A601769567955795479540FB8F
:103F500081F9B701A60122E07695679557954795B7
:103F60002A95D1F740FB82F9B701A60133E0769597
:103F70006795579547953A95D1F740FB83F9B70177
:103F8000A601E4E07695679557954795EA95D1F7B0
:103F900040FB84F9B701A601F5E076956795579542
:103FA0004795FA95D1F740FB85F9B701A601A6E040
:103FB0007695679557954795AA95D1F740FB86F971
:103FC000B701A601B7E07695679557954795BA95DD
:103FD000D1F740FB87F98093BD028091BE02D0FAF1
:103FE00080F9D1FACC24C0F8C0FA81F98093BE02DE
:103FF0008091BD029091BE020E94581890E080E02E
:10400000FF90EF90DF90CF9008950E94611B2FEFFB
:1040100084E39CE0215080409040E1F700C0000024
:1040200088E19CE00FB6F894A895809360000FBEDD
:1040300090936000FFCF882341F080959091F1022A
:1040400089238093F1020E94561A0895882339F03B
:104050009091F102982B9093F1020E94561A0895C4
:10406000882321F00E9414130E94561A0895882371
:1040700039F090916602982B909366020E94561A2E
:104080000895882351F19CEF980F913A40F4682FDE
:1040900082E891E00E9415100E94561A089590E25D
:1040A000980F983050F4877091E001C0990F8A956D
:1040B000EAF7892F0E941413EFCF9BE5980F9330F6
:1040C00028F490E080E00E948A100895885A873191
:1040D00020F490E080E00E9474100895CF93DF9365
:1040E000EC010E944120CE010E9410149E01205E2E
:1040F00031092830310510F0CD2B29F40E943020F1
:10410000DF91CF9108950E941B20FACFCF93C82F43
:104110008823D9F18CEF8C0F813AC8F58091160174
:10412000882311F18091BD0287FF1EC0EC2FE69518
:10413000E695E695F0E0EE57FE4F828190E04C2F39
:10414000477021E030E002C0220F331F4A95E2F7AA
:1041500082239323892B91F06C2F82E891E00E94B7
:1041600015100E94561A0AC0E4E8F1E08AE891E0CE
:104170002191C21789F38E179F07D1F76C2F82E820
:1041800091E00E943F100E94561ACF91089580E25C
:104190008C0F883068F4C77021E030E001C0220F36
:1041A000CA95EAF780916602822B80936602EBCF74
:1041B000EBE5EC0FE33040F4F0E0E15EFE4F808190
:1041C00090E00E948A10E1CFC85AC731F0F6EC2F78
:1041D000F0E0EE0FFF1FEE5DFE4F808191810E94A7
:1041E0007410D3CF1F93CF93DF93182FC091AB02DE
:1041F000D091AC02893321F0C091A902D091AA02DA
:10420000812F0E948620209739F4812F0E9441201F
:10421000DF91CF911F9108958FE99FE00197F1F70A
:1042200000C000002197EFCF0F931F93CF93DF9330
:10423000C42FD22FFC0182818823A9F04093B102C0
:104240000E9472199093B0028093AF02C77081E010
:1042500001C0880FCA95EAF70E943720DF91CF91FD
:104260001F910F9108951091B102141336C08091DF
:10427000AF029091B0020E9463192091A302309185
:10428000A4028217930748F5C0E2CD0F1D17B9F0BD
:1042900080E2810F883040F4177081E001C0880F00
:1042A0001A95EAF70E943020C83048F481E09D2F2B
:1042B000977001C0880F9A95EAF70E943720802FE7
:1042C0000E94F220C83050F6D77081E001C0880FFC
:1042D000DA95EAF70E943020C1CFC77081E001C0B3
:1042E000880FCA95EAF7F6CFB0E0A0E0EAE7F1E27E
:1042F0000C947E36EC018AE0A82E2881222309F452
:104300008FC02130C9F599818A81913021F422969C
:104310000E94F22005C0923029F422960E94862045
:104320002196EBCF933021F422960E944120F8CFC2
:10433000943011F02196F4CF229630E020E0AE01C7
:104340004F5F5F4F8053990B8A30910550F0215099
:10435000310930F38FE99FE00197F1F700C00000C9
:10436000F6CFA29EB001A39E700D11249C01260FD2
:10437000371F8981EA01E3CFE22FF0E0E15FFC4ED5
:10438000B490822F86958695869590E0FC01E15049
:10439000FD4EE4902770F12C022E02C0F594E794B4
:1043A0000A94E2F731E0E322FF24FC01E151FD4EE3
:1043B000C490D12C022E02C0D594C7940A94E2F77F
:1043C00031E0C322DD24FC01E152FD4E049110E0F6
:1043D00002C0159507952A95E2F701701127E1149F
:1043E000F10419F081EE0E948620C114D10419F065
:1043F00086EE0E9486208B2D0E94F220C114D104EB
:1044000019F086EE0E944120E114F10419F081EECA
:104410000E9441200115110509F482CF8CE278CF6A
:10442000CDB7DEB7EAE00C949A36CF93DF93EC0178
:104430000E9410149E01205E31092830310510F0D1
:10444000209741F40E9437208C2F0E948620DF9114
:10445000CF9108950E942620F7CF662329F020915E
:10446000F10222602093F1029C013056211540E2B6
:10447000340720F0305E2115304108F499270E945E
:1044800015220895B0E0A0E0E8E4F2E20C94813651
:104490007C018B01D42E8091150182FF8CC0C091CC
:1044A0008902D0918A02CE15DF0521F0E114F104D2
:1044B00009F081C0809115018B7F8093150181FDEA
:1044C00073C08091870290918802A801481B590B04
:1044D00081E020911301309114014217530708F431
:1044E00080E08170F82E80911501F0FA81F98093B7
:1044F0001501FE0183E0F695E7958A95E1F7EE71E7
:10450000FF27E959FD4F20813181AE014F705527BA
:1045100081E090E002C0880F991F4A95E2F7FF20E2
:1045200009F444C0822B932B91838083809166028F
:1045300081FF08C08091150180618093150182E0A0
:104540000E9414138091660285FF08C080911501B6
:1045500080628093150180E20E9414136F2DCE01BA
:104560000E942D22DD2031F08091A60285FF02C03D
:1045700086FF3BC08091A9029091AA020E943E163C
:104580008091890290918A029C013056211540E267
:10459000340720F0305E2115304108F499270E943D
:1045A0006E200E94BA1A1DC081E09BCF8095909525
:1045B00082239323B9CFC70199279701305621153C
:1045C00040E2340728F0305E2115304108F0C70181
:1045D0000E946E208091890290918A028E159F051B
:1045E00001F31093880200938702CDB7DEB7E7E0AE
:1045F0000C949D36A7E1B0E0E0E0F3E20C94853640
:10460000942F4B8B252F5C8B6D8B7E8B8F8B4E89E4
:104610005F89622F892F0E944213811109C0809106
:10462000A6019091A70101969093A7018093A601FE
:104630008D8981111092F1021A8A198A85E0FE0192
:104640007396DE011D9601900D928A95E1F7809197
:10465000BE0282FF1EC080918D0290918E02892B36
:10466000C1F00E9472192091EC013091ED01821B82
:10467000930B20918D0230918E028217930720F0C8
:104680008091EE0182FF6FC00E943C1A81110E944E
:10469000091386E0FE013D96DE01179601900D920A
:1046A0008A95E1F7CE0107960E94742B811111C003
:1046B00086E0FE013796DE01119601900D928A95F3
:1046C000E1F74A855B8568858F810E9442138823C4
:1046D00059F016E08091EB019091BA01891331C035
:1046E0006796E3E00C94A1362091BA0130E0C9014D
:1046F0000196877099274091EB014817190699F0A8
:1047000096E0929FD001939FB00D1124A554BE4F07
:10471000FE01319601900D929A95E1F78093BA01CE
:104720000E944D13D6CF0E94611B1092BA011092C5
:10473000EB0186E0E4EBF1E0DF011D928A95E9F7F9
:10474000C8CF819FC001112485549E4F0E94742BB5
:10475000882331F28091EB0190E0019687709927D0
:104760008093EB01B7CF82E00E94081B8DCFA5E0BC
:10477000B0E0EDEBF3E20C94863690935D0280930B
:104780005C02811520E2920730F40E946E2025968B
:10479000E2E00C94A23680EF89838A831B820E9418
:1047A00072198160782F9D838C8349815A816B8136
:1047B0008D810E94FA22EBCFA5E0B0E0E2EEF3E2B9
:1047C0000C94863690935D0280935C02811520E202
:1047D000920730F40E9415222596E2E00C94A2364E
:1047E00080EF89838A8381E08B830E9472198160C4
:1047F000782F9D838C8349815A816B818D810E94A2
:10480000FA22EACFA4E0B0E0E8E0F4E20C947C36CF
:104810007C01FC0143815481618180810E944213AB
:104820008111D3C061E0C7010E9460178C01F701BC
:104830008281882309F4B2C6C80182519F454097FE
:1048400008F041C68FEF93E00E9400378111AEC09F
:104850006EEED62ED00E0BEE10E0D11036C01982BF
:104860001A821B821C8299249A9468012FEFC21A23
:10487000D20AC8010E94003789831A82882309F46A
:1048800095C0813009F087C0580132E0A30EB11CF9
:10489000C6010E940037C82E8A83882309F486C087
:1048A000C5010E940037D82E8FEF8C0D8330D8F4CD
:1048B000580143E0A40EB11CDB82DD2021F0CE01C3
:1048C00001960E9474218501D0CF0115F4E01F07E5
:1048D00009F46CC0C8010E940037811101C0DA944C
:1048E0000F5F1F4FBACF8BEF8C0D833070F5C8016F
:1048F0000396DB825C01DD2031F3580154E0A50E04
:10490000B11C0E9400378C838823E9F20B811C8143
:1049100001308FEF180710F0102F002796E0C9160E
:1049200081F0E7E0CE1649F0C8010E94DC238091B7
:10493000A9029091AA020E943E16C8010E94B723C4
:10494000C2CFC8010E94DC23BECFF4E0CF12BBCFA0
:10495000580124E0A20EB11CC80103960E94003742
:10496000DD2021F1882311F18150990B989E90014F
:10497000999E300D11244D2D4150550BCA01820FC7
:10498000931F019708F49FCFEFE9FFE03197F1F70C
:1049900000C00000F6CFCE0101960E94742156019E
:1049A00092CF81E00E94391B0E94EF1A8091EE01A4
:1049B000877059F0F7018281882339F08091BE0217
:1049C00082FF03C082E00E94081B2496ECE00C9456
:1049D000983681E00E94FB1AE7CF82E0E3CF809116
:1049E0001501816080931501ABC5809115018E7F03
:1049F000809315010E94BA1AA3C5809115018F7E7C
:104A0000013E110531F0053E1105C1F480911501FB
:104A10008F7D809315018091150180FFA0C5F7015E
:104A200082810832110528F50E31110508F074C095
:104A30000430110580F581118EC591C5C8019056CD
:104A40008115E0E29E0720F0905E8115904118F7F5
:104A50008091150182FF83C58091A80281FD7FC5E9
:104A60002CE132E040E0B60190E080E00E9442227A
:104A700076C50933110558F40D32110518F40B32BF
:104A80001105C9F69091A60292FDD5CF08C0043653
:104A90001105C1F3D0CF9091A60294FDCCCF88230D
:104AA00009F4A1C09091660280911102282F292B50
:104AB000322F3D7FB1F110928A021092890230911B
:104AC000A60231FD2EC0F80143E0F695E7954A9520
:104AD000E1F7EE71FF27E959FD4F98012F70332759
:104AE00081E090E002C0880F991F2A95E2F7809537
:104AF000909520813181822393239183808360E08C
:104B0000C8010E942D22809111028D7F0E94281AD7
:104B100082E00E94081B4ACF9091A60293FD8BCFA2
:104B2000BECF36E0F701ACE1B2E001900D923A95CC
:104B3000E1F710921E021092200210921F02A09024
:104B40008902B0908A020A151B05B1F53091A602C0
:104B500035FF32C04091150141FB992490F841FF87
:104B600002C036FF29C04091870250918802B601E9
:104B7000641B750B4091A3025091A4026417750742
:104B8000D8F491FF08C080911501806180931501D0
:104B900082E00E9414138091660285FF08C0809114
:104BA000150180628093150180E20E941413692D23
:104BB000C5010E942D22FACE9091150121FB91F999
:104BC000909315018D7F0E94281A10938A020093FA
:104BD0008902D0928802C092870280911501846078
:104BE0008093150195CF970140E0B601C8010E945E
:104BF0004222DCCE053F8CE5180709F45FC008F4BB
:104C000057C0063FECE51E0709F45EC0F70132818C
:104C1000332309F4CFC41092B1020330FDE51F071E
:104C200008F05EC00A3F2CE5120730F4C80182503C
:104C30009C45449708F05EC00E9483179093BE0283
:104C40008093BD0201318CE5180709F477C108F0A3
:104C5000EDC00930ECE51E0709F45EC108F0BBC0E9
:104C600005302CE5120709F44FC108F0A0C003304D
:104C70004CE5140709F440C108F042C102308CE54C
:104C8000180709F433C18091BD029091BE020E94C1
:104C900058180E94611B8ACE07E225EE45EE68EDAA
:104CA0007CE578C406E221EE40EE63EF7CE572C459
:104CB00007E225EE44EE64EF7CE56CC406E221EEEB
:104CC00042EE65EF7CE566C407E225EE46EE66EF50
:104CD0007CE560C408E221E045EE69ED7CE55AC45C
:104CE00001364DE5140709F4A7CF053A5DE5150730
:104CF00009F4A2CF06318CE5180709F460C40A351F
:104D00009DE5190709F473C108F04CC10115FCE5D4
:104D10001F0709F452C10E3D1C4509F45BC1F701A0
:104D2000828100811181882309F465C1C8010E9434
:104D3000F916D82E682FC8010E94C813B8018D2D0E
:104D40000E94CF160E948C118C01882EF701C28020
:104D5000D580D2943FE0D3228091EE018770C1F0DC
:104D6000AC2CCC20B1F0812F807F803421F080E208
:104D7000800F883068F08091BE0282FF09C082E017
:104D80000E94081B8091EE018770AA24A3948111D0
:104D9000A12C912E92942FE09222FBE0F91508F4B9
:104DA000A6C1E92DF0E0E25BF84C0C94CD36809181
:104DB000BD02806207309CE5190709F49AC0809112
:104DC000BD0280610830ECE51E0708F492C08091B6
:104DD000BD0280648EC08091BD028B7F0D30FCE5EA
:104DE0001F0709F486C0A0F48091BD028E7F0B30AE
:104DF0003CE5130709F47DC08091BD028C600C3046
:104E00004CE5140708F475C08091BD028D7F71C018
:104E10008091BD028F7E0F305CE5150709F469C0F3
:104E200008F480C08091BD028F7D63C00D3F9CE57A
:104E3000190709F47FC058F50531FCE51F0709F48F
:104E400087C098F48091BD02837F03313CE513074E
:104E500009F44FC008F476C00E94611B9091BD0216
:104E6000892F97FB87F9805844C00B3F5CE51507F5
:104E700009F44EC008F05AC08091BE0281600A3F1A
:104E80009CE5190709F0FFCE8093BE02FCCE0130ED
:104E9000EDE51E0709F468C0C0F48091BE028C7F66
:104EA0000F3F2CE5120781F38091BE02836001154C
:104EB0003DE5130748F38091BE02982F90959170BD
:104EC0008E7F892B90FB81F9DFCF01364DE51407EA
:104ED00009F450C0053A5DE5150709F452C00230E7
:104EE0008DE5180709F0CFCE60E03FC08091BD028C
:104EF00081608093BD02C7CE8091BD028260F9CFF0
:104F00008091BD028460F5CF8091BD028860F1CFB1
:104F10008091BE028260B8CF0E94611B8091BD0269
:104F20008068E7CF8091BD02877FE3CF8091BE028A
:104F30008E7FAACF8091BE028D7FA6CF8091BD02C9
:104F40008F7BD7CF0E94611B8091BD028F77D1CF1D
:104F50008091BD0282FB992790F921E0922790FB76
:104F600082F990FB83F9C5CF61E08EE090E00E946A
:104F70000E3789CE9091BD02892F8F7E94FF80617C
:104F8000B8CF9091BD02892F8E7F90FF8160B1CF05
:104F90008091A40169E2811165E382E891E00E94B9
:104FA00015103AC30C353DE51307B9F010F1073A77
:104FB0001D4509F0B4CE0E9405200E94611B8FEFB1
:104FC00094E3ECE081509040E040E1F700C0000045
:104FD0000E941A160E94211FEECF8091BE0282FB12
:104FE000882780F991E089270E94241B98CE81E0D0
:104FF000FBCF80E0F9CFC8010E947E13D82E9ECE51
:10500000212F2F70B22E812F807F19F0B29490EF54
:10501000B922CC20B9F0BB2069F080E2800F883043
:1050200010F0811009C080916602B82AB092660221
:105030000E94561A802F59C08091F102B82AB0926E
:10504000F102F6CF802F0E944120BB2009F44FC00F
:1050500080E2800F883010F0811004C08B2D0E94F8
:10506000141306C0B0948091F102B822B092F102FC
:105070000E94561A3CC0312F3F70B32E812F807F83
:10508000803219F0B29480EFB8228820F1F041E02C
:10509000841609F4A8C0CC2009F4B1C0DD2009F4BD
:1050A00079C020E0F7014081518162817381848160
:1050B0000E943D178091A80281FDBCCFF701858138
:1050C00080FFB8CF8F70858365C08091BE0282FD5E
:1050D00041C0CC20C9F1BB2039F080916602B82ACA
:1050E000B09266020E94561A80E00E948620492DE6
:1050F0004850550B4430510510F40E94A010C801CF
:105100000E94E4138111C0C11092A7011092A60160
:10511000AA20A9F08091EE0180FD11C0F701128252
:105120008595859585950E94391BC7010E940224AB
:105130008091EE018595859585950E94FB1A60E02A
:10514000C7010E94601741CC80E00E944120BB2033
:1051500071F284CFCC2011F1D11004C080911102E2
:105160008B2919C051E0D51206C0809111028B29FC
:105170000E94281ABCCF8091A702823078F3D812FF
:10518000EDCF0E9409139091A5018B2D892B8913D6
:105190008093A5018B2D0E943720A9CFD11003C089
:1051A0000E94091317C08091A70291E0D91216C07E
:1051B000823008F49CCF809166028B2109F497CF4E
:1051C0000E9409139091A5018B2D80958923891345
:1051D0008093A5018B2D0E94302089CF823000F36F
:1051E000D812DECF84CF8091AD02CC2021F08D1576
:1051F00008F47DCFCFCFD81608F079CFEBCFDD20E4
:1052000049F3F9E38F1238C18091AB029091AC025F
:105210000E943E16802F0E94412069CF812F8695E3
:105220008695837061F0813009F061CFC801937079
:10523000C11002C090E080E00E94741058CFC801F5
:105240009370C11002C090E080E00E948A104FCF9E
:10525000812F837091F5C1104ACF402F429546951A
:105260004770440F440F802F8F70042E01C0880FA9
:105270000A94EAF7202F207104FF07C02FE030E0E6
:1052800001C0220F4A95EAF72095312F36953695C1
:105290003370323069F050F440912F02313029F0F0
:1052A000822B84230E945C1B22CF842B822BFACF7B
:1052B000282B80912F028227F5CF8695CC2011F0E4
:1052C000812F8170882309F412CF402F4295469593
:1052D0004770440F440F802F8F70042E01C0880F39
:1052E0000A94EAF7202F207104FF07C02FE030E076
:1052F00001C0220F4A95EAF72095312F3695369551
:105300003370323069F050F44091F202313029F0BC
:10531000822B84230E94EA1AEACE842B822BFACFB6
:10532000282B8091F2028227F5CF212F2F70B22EE9
:10533000CC2029F0822F0E94391B802F2CCF802F68
:105340000E9430208B2D0E94FB1AD1CE802F32EF8D
:105350008316B1F1381570F040EF8416D1F051EF9B
:10536000851691F0CC2009F482C0D11063CE812F34
:105370008F712AC093EF891651F1E4EF8E12F2CFAC
:105380008091BE0282FD2FC0812F8F71CC20D9F277
:105390001BC08091AD02CC2079F0D81608F0A7CEC2
:1053A000212F2F7181E090E001C0880F2A95EAF744
:1053B0009091F2028927AECF8D1508F498CEF0CFE8
:1053C000812F8F71C110BFCF0E94391B90CE80E01A
:1053D000CC2009F49FCF81E0912F9F7101C0880FED
:1053E0009A95EAF797CF8091A702823040F1CC20BE
:1053F000D1F09091EE019770943041F40E941B130C
:10540000812F8F710E94FB1AA12C71CED816E0F764
:10541000F12FFF71BF2E8F2F0E94391B63E08B2D60
:105420000E94451BF1CFD81630F00E941B1364E098
:10543000812F8F71F5CF81E00E94081BE5CFCC2032
:1054400059F0212F2F71B22E822F0E94391B63E059
:105450008B2D0E94451B4BCE81E00E94081B31E042
:105460003D1508F044CE82E00E94081B40CEDD20AE
:1054700041F0893309F4C8CE8091A9029091AA0223
:10548000C7CE812F8F715FCFCC2019F0D1103CCEC9
:105490003FCED11039CE20E0F701408151816281A9
:1054A000738184810E943D178091A80283FF2CCED6
:1054B0008091A6019091A701029709F025CE802F37
:1054C0000E94F22021CE0031FFE51F0709F469CACE
:1054D00001312FE5120709F480CA80912E0291E074
:1054E000892780932E028091A60280FF38C00E94F7
:1054F00072196C01F7018281882309F47ECA8091B8
:10550000150182FF08C02CE132E040E0B60190E0D6
:1055100080E00E9442220B31FCE51F0709F45FCABC
:105520000C312CE5120709F460CA90911501892FFE
:105530008E7F90FF81600A313CE5130709F458CA59
:10554000C8019056811540E2940728F0905E8115BD
:10555000904108F060CA10928A0210928902033FBB
:10556000FCE51F0709F49ECB08F044CB083D3CE561
:10557000130709F491CB093D4CE5140709F4AACBB4
:10558000073D5CE5150709F041CB06E221EE41EE4F
:1055900067ED7CE5C7010E94142108CA00313FE590
:1055A000130709F416CA01314FE5140709F09BCF20
:1055B00082E010CA06315CE5150709F0B0CB809196
:1055C0006602982F9A7A2091A50220FF04C0482FE6
:1055D000447409F090E021FF04C0482F417109F0A4
:1055E00090E022FF04C0482F487809F090E023FFA4
:1055F00003C0827209F090E0332309F4C9CC81E042
:10560000911101C080E08093A40169E2911165E3EA
:1056100082E891E00E943F100E94561AC7C9B0E08C
:10562000A0E0E5E1FBE20C947F368091B901807F38
:1056300009F052C08091B601882309F44DC0C09191
:10564000EB0186E0B82E8091BA018C1709F444C0B2
:10565000F090B401E090B501C090B701D090B801CE
:10566000A6016E2D8F2D0E944213D0E0811139C00A
:10567000BC9E8001BD9E100D1124F801E554FE4F23
:1056800081818E112EC080818F112BC0828181116A
:1056900028C0E380F480EC18FD0860E084EB91E022
:1056A0000E9460178091A3029091A402E816F90667
:1056B000C0F48091B9018F7080618093B901F801C5
:1056C000E054FE4F80818F708061808384EB91E095
:1056D0000E9402240E944D13CDB7DEB7E9E00C947E
:1056E0009B362196C770AFCFA1E1B0E0EAE7FBE2BD
:1056F0000C9477368C0185E0F801DE011D9601904F
:105700000D928A95E1F7D8014C9011965C90119713
:105710001296EC9012971396CD90DC9060E084EB9B
:1057200091E00E94601784EBA82E81E0B82E809053
:10573000B7019090B801A4016091B5018091B401C6
:105740000E944213811183C1F090B601F601E8195D
:10575000F9094F0160E0FF2009F42FC1C5010E9443
:1057600060176090A3027090A4023090B901861473
:10577000970408F0E4C04091B7015091B801B0908F
:10578000B401A090B501832D807F6A2D09F08FC0F0
:105790008B2D0E944213FE2C81111DC0D801119641
:1057A0008C9111978A1117C08C918B1114C0E11044
:1057B00012C0832D8F7080618093B90184EB91E0DA
:1057C0000E9402248091B901F80185838F2D619692
:1057D000E1E10C949336F4EF6F16F1E07F0620F4CC
:1057E0008091A80280FF21C0A601652D842D0E9412
:1057F0004213811118C081E08E2580FF16C04E2D06
:10580000652D842D0E942213882379F084EB91E08A
:105810000E94022486E0E4EBF1E0DF011D928A950C
:10582000E9F7F12CD3CF80E0E8CFA601652D842DD8
:105830000E944213811124C081E08E25B82FB170DF
:10584000CB2E80FF2BC04E2D652D842D0E94221360
:10585000D82E811123C04D865E868D859E850E943F
:105860002817292F22952F70223060F0243088F4D9
:105870009F7061F0F8019581907F41F4FD2CA6CFD7
:1058800080E0DCCF9F7011F08823C1F3805E883008
:10589000A8F3C8010E940224DC2CF0CFEE2009F40A
:1058A00095CF8091B90181608093B901BACF8B2DDA
:1058B0000E944213811119C0D80111968C91119741
:1058C0008A1113C08C918B1110C0E1100EC0159677
:1058D0003C92C8010E94022486E0F801A4EBB1E0EA
:1058E00001900D928A95E1F771CFC8010E9435179A
:1058F000882309F1EE20F9F08091B901803270F02F
:105900002091B4013091B50138872F831986DB8649
:10591000CA868C87CE0107960E94022486E0F80191
:10592000A4EBB1E001900D928A95E1F70E940F2B54
:10593000FF24F3944BCFC8010E940224F9CF832D9A
:10594000807F09F463CF9090B4018090B5014091BD
:10595000B7015091B801682D892D0E944213811121
:1059600013C0F801818188110FC0808189110CC09A
:10597000E1100AC03582C8010E94022486E0D501E8
:105980001D928A95E9F722CFC8010E943517882316
:1059900091F2EE2081F28091B901803208F4BECFFD
:1059A0002091B4013091B5013A8329831B82DD82B5
:1059B000CC828E83CE010196AFCF84EB91E00E9422
:1059C00060178091A3029091A40288169906B0F600
:1059D000FE2CEE2009F4AFCFE090B401D090B501D9
:1059E0004091B7015091B8016D2D8E2D0E94421348
:1059F00081111FC0F80181818D111BC080818E1122
:105A000018C08091A80282FD67CF9091B90190FDE6
:105A100063CF907F09F460CF8091B9018583903F77
:105A200009F457CF982F907F905F8F70892B8583D3
:105A300050CFC8010E943517811170CF8091B901F4
:105A400081608093B901C8010E940224BFCEEE207C
:105A500009F471CFC8010E943517F82E882309F484
:105A60006ACF86E0F801A4EBB1E001900D928A952F
:105A7000E1F78091B4019091B5010E9428170E942E
:105A80000F2BA4CE1F921FB61F9211248F939F93AA
:105A9000AF93BF938091B802811113C08091B90276
:105AA0009091BA02A091BB02B091BC024196A11D97
:105AB000B11D8093B9029093BA02A093BB02B09338
:105AC000BC02BF91AF919F918F911F901FBE1F90FD
:105AD0001895CDB7DEB7C854D1090FB6F894DEBF1C
